:020000040800F2
:1000000000000120A95900083551000837510008A7
:10001000395100083B5100083D5100080000000024
:100020000000000000000000000000003F51000838
:1000300041510008000000004351000845510008EC
:10004000F9590008F9590008F9590008F959000848
:10005000F9590008F9590008F9590008F959000838
:10006000F9590008F9590008F9590008F959000828
:10007000F95900084D510008F9590008F9590008CC
:10008000F9590008F9590008F9590008F959000808
:10009000F9590008F9590008F9590008F9590008F8
:1000A000F9590008F9590008F9590008F9590008E8
:1000B000F95900080000000000000000F95900088C
:1000C000F9590008F9590008F9590008F9590008C8
:1000D000F9590008F9590008F9590008F9590008B8
:1000E000F9590008F959000800000000000000005C
:1000F0000000000000000000000000000000000000
:1001000000000000F959000800000000F95900083B
:100110000000000000000000F9590008F95900082B
:10012000F9590008F9590008F9590008F959000867
:10013000F959000800000000000000000000000065
:10014000F9590008F9590008F9590008F959000847
:10015000F9590008F9590008F9590008F959000837
:10016000F9590008F9590008F95900080000000081
:10017000F9590008F9590008F95900080000000071
:10018000F9590008F9590008F95900080000000061
:10019000044B05481B1A062B02D9044B03B1184720
:1001A000704700BF13000020100000200000000076
:1001B00005490648091A891001EBD171491002D08E
:1001C000034B03B1184770471000002010000020B7
:1001D0000000000010B5064C237843B9FFF7D8FFA4
:1001E000044B13B10448AFF300800123237010BD0A
:1001F0001000002000000000FC59000808B5084B62
:100200001BB108490848AFF300800848036813B9D8
:10021000BDE80840CCE7064B002BF9D09847F7E73C
:100220000000000014000020FC590008100000200D
:100230000000000070B50D4E0D4D761BB61006D0B7
:100240000024013455F8043B9847A642F9D1094EE1
:10025000094D761B05F0D2FBB61006D00024013400
:1002600055F8043B9847A642F9D170BDB05D00082F
:10027000B05D0008B45D0008B05D0008F0B486070A
:1002800043D0541E002A3ED0CAB2034602E014F105
:10029000FF3438D303F8012B9D07F8D1032C2BD959
:1002A000CDB245EA05250F2C45EA054516D9A4F13E
:1002B00010073F0903F1200606EB071603F11002B1
:1002C00042E9045542E902551032B242F8D104F035
:1002D0000F040137032C03EB07130DD91E462246EA
:1002E000043A032A46F8045BFAD8221F22F00302DC
:1002F0000432134404F003042CB1C9B21C4403F8C3
:10030000011B9C42FBD1F0BC704714460346C5E775
:1003100053B94AB9002908BF00281CBF4FF0FF316C
:100320004FF0FF3000F07AB9ADF1080C6DE904CE62
:1003300000F006F8DDF804E0DDE9022304B07047C0
:100340002DE9F0478C460D460446089E002B51D1FE
:100350008A4217466DD9B2FA82FEBEF1000F0BD069
:10036000CEF1200C01FA0EF520FA0CFC02FA0EF781
:100370004CEA050C00FA0EF44FEA174A250CBCFBB8
:10038000FAF81FFA87F90AFB18CC45EA0C4508FB76
:1003900009F3AB420AD9ED1908F1FF3280F023814D
:1003A000AB4240F22081A8F102083D44ED1AA4B20C
:1003B000B5FBFAF00AFB105544EA054400FB09F9C5
:1003C000A14509D9E41900F1FF3380F00A81A14564
:1003D00040F2078102383C44A4EB090440EA08409B
:1003E0000021002E61D024FA0EF4002334607360E3
:1003F000BDE8F0878B4207D9002E54D0002186E853
:1004000021000846BDE8F087B3FA83F1002940F0E7
:100410008E80AB4202D3824200F2FA80841A65EBEE
:1004200003050120AC46002E3FD086E81010BDE841
:10043000F08712B90127B7FBF2F7B7FA87FEBEF1D2
:10044000000F34D1EB1B3A0C1FFA87FC0121B3FBE0
:10045000F2F8250C02FB183345EA03450CFB08F3C0
:10046000AB4207D9ED1908F1FF3002D2AB4200F2DE
:10047000D1808046ED1AA3B2B5FBF2F002FB105515
:1004800043EA05440CFB00FCA44507D9E41900F13C
:10049000FF3302D2A44500F2B8801846A4EB0C0446
:1004A00040EA08409DE731463046BDE8F087CEF18E
:1004B000200405FA0EF307FA0EF720FA04F83A0CB6
:1004C00025FA04F448EA0308B4FBF2F14FEA1845B0
:1004D00002FB11441FFA87FC45EA044501FB0CF3BB
:1004E000AB4200FA0EF409D9ED1901F1FF3080F0AA
:1004F0008A80AB4240F2878002393D44EB1A1FFAF2
:1005000088F5B3FBF2F002FB103345EA034500FB2C
:100510000CF3AB4207D9ED1900F1FF386FD2AB42B3
:100520006DD902383D44EB1A40EA01418FE7C1F131
:10053000200722FA07F88B4005FA01F448EA030382
:1005400020FA07FE4FEA134CFD404EEA040EB5FBBD
:10055000FCF94FEA1E440CFB19551FFA83F844EAD4
:10056000054509FB08F4AC4202FA01F200FA01FA6F
:1005700008D9ED1809F1FF3043D2AC4241D9A9F1B5
:1005800002091D442D1B1FFA8EFEB5FBFCF00CFB6F
:1005900010554EEA054400FB08F8A04507D9E418B9
:1005A00000F1FF3529D2A04527D902381C4440EA82
:1005B0000940A4EB0804A0FB02894C45C6464D4601
:1005C00015D312D056B1BAEB0E0364EB050404FA4E
:1005D00007F7CB401F43CC40376074600021BDE873
:1005E000F0871846F8E69046E0E6C245EAD2B8EB56
:1005F000020E69EB03050138E4E72846D7E74046D9
:1006000091E78146BEE7014678E702383C4445E77A
:10061000084608E7A8F102083D442BE7704700BFF1
:1006200030B583B000230193002800F049820446CE
:1006300002689D4B9A4204D04FF4D1719B4805F05B
:10064000B2F96368B3F5803F2CD0B3F5003F29D0F1
:10065000B3F5403F26D02BB3B3F5802F22D0B3F5AE
:10066000002F1FD0B3F5402F1CD0B3F5801F19D039
:10067000B3F5A01F16D0B3F5C01F13D0B3F5E01F1C
:1006800010D0B3F5001F0DD0B3F5101F0AD0B3F58D
:10069000201F07D0B3F5301F04D040F2A3118348C8
:1006A00005F081F9A36853B1082B08D0102B06D0B0
:1006B000182B04D04FF4D2717C4805F074F9E3682C
:1006C00033B1202B04D04FF4D471784805F06BF986
:1006D0002369012B04D940F2A911744805F063F98C
:1006E000637E012B04D94FF4D571704805F05BF996
:1006F000E36A6BB1B3F5806F0AD0B3F5006F07D032
:10070000B3F5406F04D040F2AB11684805F04BF9E7
:10071000A36AB3F5806F2ED0B3F5886F2BD0B3F5F5
:10072000906F28D0B3F5986F25D0B3F5A06F22D085
:10073000B3F5A86F1FD0B3F5B06F1CD0B3F5B86F89
:1007400019D0B3F5C06F16D0B3F5C86F13D0B3F599
:10075000D06F10D0B3F5D86F0DD0B3F5E06F0AD0DD
:10076000B3F5E86F07D0B3F5F06F04D0B3F5F86FC9
:1007700001D0002B6DD194F83030012B04D940F218
:10078000AD114A4805F00FF96369042B06D0082B18
:1007900004D04FF4D771454805F005F9636B3BB1C0
:1007A000B3F5805F04D040F2AF11404805F0FBF88C
:1007B000237E012B04D94FF4D8713C4805F0F3F89F
:1007C00094F83830012B04D940F2B111374805F0C4
:1007D000EAF8236983B1E369013B0F2B3FD894F812
:1007E0002030012B04D94FF4DB71304805F0DBF8E1
:1007F00094F82030012B38D094F82030012B3ED0D3
:10080000636D002B44D023689A6812F0005F47D0D4
:1008100001222AB19A6822F0204222F03F029A6017
:100820002268936813F0805F3CD00123002B49D1EC
:10083000936823F0104323F03F0343F08053936009
:100840001B4B1B689B091B4AA2FB03239B090193BB
:1008500035E04FF4D671154805F0A5F88BE740F266
:10086000B511124805F09FF8B9E7636A013B072B01
:10087000C2D94FF4DD710D4805F095F8BCE7637EF1
:10088000012BBDD140F2BF11084805F08CF8B7E745
:10089000204604F053FD0023A36584F85030B2E7EE
:1008A0000022B6E70023C1E700000450185A0008F0
:1008B00008000020632D3E05019B013B0193019B35
:1008C000002BF9D123689A6812F0805F7FD0012253
:1008D000002A7ED1626D42F010026265A26D42F084
:1008E0000102A26501259A6812F0040F73D001215C
:1008F000626D12F0100F40F0DB80002940F0D880CC
:10090000626D22F4817242F0020262659B6813F00C
:10091000010F62D001236BB96A4B9B6813F0010F82
:100920005DD0012333B9636867498A6822F47C1279
:1009300013438B60627E636B43EA4233E268134386
:10094000A268134394F8202043EA0243012A48D0C6
:10095000A26A22B102F47072E16A0A431343216869
:10096000C8685A4A02401343CB6023689A6812F061
:10097000040F3BD001219A6812F0080F38D00122F1
:10098000B1B9AAB9217E94F83020520042EA8132EE
:10099000D96821F4804121F002010A43DA6094F819
:1009A0003830012B26D02268136923F0010313612C
:1009B0002369012B73D02268136B23F00F03136399
:1009C000636D23F0030343F00103636575E00022C8
:1009D0007EE7002587E700218AE700239BE70023C5
:1009E000A0E7626A013A43EA4243B1E70021C2E765
:1009F0000022C5E7E36B93B1042B10D0082B0ED077
:100A00000C2B0CD0102B0AD0142B08D0182B06D08E
:100A10001C2B04D04FF41C712D4804F0C4FF236C30
:100A2000ABB1202B13D0402B11D0602B0FD0802BDB
:100A30000DD0A02B0BD0C02B09D0E02B07D0B3F5E5
:100A4000807F04D040F27121214804F0ACFF636C38
:100A50003BB1B3F5007F04D040F272211C4804F092
:100A6000A2FFA36C012B08D040F20142934204D0B4
:100A700040F27321164804F096FF21680B6923F4B5
:100A8000FF6323F00403E26B206C0243606C0243BB
:100A9000A06C0243134343F001030B6188E7216814
:100AA0000B6B23F00F03E269013A13430B6387E7F3
:100AB000636D43F0100363650125284603B030BD24
:100AC0000125FAE7000004500003045007C0F0FFBE
:100AD000185A0008F0B583B005460C460023019370
:100AE0000268934B9A4204D040F69521914804F055
:100AF0005AFF6368062B31D00C2B2FD0122B2DD030
:100B0000182B2BD0B3F5807F28D0B3F5837F25D069
:100B1000B3F5867F22D0B3F5897F1FD0B3F58C7FE4
:100B20001CD0B3F5007F19D040F20622934215D0B5
:100B3000B3F5037F12D040F2122293420ED0B3F5E8
:100B4000067F0BD0B3F5407F08D040F206329342C7
:100B500004D040F69621774804F025FFA368072BC0
:100B600000F2D380E3687F2B07D0734A934204D00E
:100B700040F698216F4804F016FF2369042B0BD030
:100B800053B1012B08D0022B06D0032B04D040F622
:100B90009921684804F007FF61692B68DB689B08AE
:100BA00003F0060340F6FF7222FA03F3994200F2C3
:100BB000B2802369042B04D095F83830012B00F063
:100BC000B080E2685C4B9A4200F031812A68584B51
:100BD0009A4200F0C18040F6A321564804F0E3FE9B
:100BE00095F85030012B00F0F782012385F8503042
:100BF0002E68B26812F0040F00F069811A46002ACC
:100C000040F0DC82606821683036030A9B0003F004
:100C10000C03F25800F01F001F27874022EA07024A
:100C2000C1F3846181400A43F2502B689A6812F044
:100C3000040F00F04E8101219A6812F0080F00F0B5
:100C40004A81012259BB52BB2668A0681433720E38
:100C5000920002F004029958C6F304560727B740E1
:100C600021EA0701B0400143995062692968CB68C5
:100C7000C3F3C1035B0002FA03F32069042800F008
:100C80002C812668603151F820702C4A3A4006F0D9
:100C9000F84633431A4342F0004241F820202A68C4
:100CA000936813F0010F00F074810123B3B9236836
:100CB000E068D2F8B010C3F3120621EA060100F092
:100CC00018061F48F0400340C3F312030B43C2F859
:100CD000B030E268184B9A4200F05D812368194AEF
:100CE000134200F07582184A926802F0E0701749CA
:100CF0008B4200F0168216498B4200F0388215496B
:100D00008B4200F0488200205DE240F697210948BE
:100D100004F049FE26E740F69A21064804F043FE17
:100D200047E740F69E21034804F03DFE49E700BF37
:100D300000000450185A000800007F4000F0FF0334
:100D4000FFFF07000000088000030450000052C7A6
:100D5000000084CB010000802368C04A93423FF426
:100D60003FAFBF4A93423FF43BAFBE4A93423FF48A
:100D700037AFBD4A93423FF433AF02F1866210327F
:100D800093423FF42DAFB94A93423FF429AF02F1A9
:100D90008662403293423FF423AFB54A93423FF418
:100DA0001FAF02F1866202F5807293423FF418AFE2
:100DB000B04A93423FF414AF02F1042202F540120C
:100DC00093423FF40DAF02F1866202F50062934256
:100DD0003FF406AFA84A93423FF402AFA74A9342BA
:100DE0003FF4FEAEA64A93423FF4FAAEA54A9342C0
:100DF0003FF4F6AEA44A93423FF4F2AEA34A9342C4
:100E00003FF4EEAEA24A93423FF4EAAEA14A9342C7
:100E10003FF4E6AEA04A93423FF4E2AE9F4A9342CB
:100E20003FF4DEAE9E4A93427FF4D5AED8E6236807
:100E30008A4A93423FF4D4AE894A93423FF4D0AEFB
:100E4000884A93423FF4CCAE874A93423FF4C8AEFF
:100E500002F18662103293423FF4C2AE834A93425B
:100E60003FF4BEAE02F18662403293423FF4B8AE28
:100E70007F4A93423FF4B4AE02F1866202F580727B
:100E800093423FF4ADAE7B4A93423FF4A9AE02F1E8
:100E9000042202F5401293423FF4A2AE02F18662B0
:100EA00002F5006293423FF49BAE734A93423FF4D3
:100EB00097AE724A93423FF493AE714A93423FF425
:100EC0008FAE40F6A721774804F06DFD88E600223A
:100ED00095E60021B0E60022B4E60B6E0A6EC2F37E
:100EE00084622368C3F3120080BBC3F3846393421C
:100EF00031D029684B6E4A6EC2F384622368C3F313
:100F0000120068BBC3F3846393422ED029688B6EB2
:100F10008A6EC2F384622368C3F3120050BBC3F32A
:100F2000846393422BD02968CB6ECA6EC2F384626D
:100F30002368C3F3120038BBC3F3846393427FF486
:100F4000AEAECB6E23F00043CB66A8E693FAA3F3D4
:100F5000B3FA83F3CBE70B6E23F000430B66C8E7CD
:100F600093FAA3F3B3FA83F3CEE74B6E23F0004377
:100F70004B66CBE793FAA3F3B3FA83F3D1E78B6E17
:100F800023F000438B66CEE793FAA3F3B3FA83F31F
:100F9000D4E700238AE629682268C2F3120696BBCA
:100FA000930E013303F01F03092B8CBF0023012391
:100FB000002B79D09EBB930E01339B0603F0F843C0
:100FC000B6BB900E013000F01F070120B840184357
:100FD000C6BB930E013303F01F0303EB43031B0552
:100FE0000343A06814315A0E920002F004028E5896
:100FF000C3F3045307279F4026EA070600FA03F3CA
:1010000033438B506AE692FAA2F3B3FA83F30133C7
:1010100003F01F03092B8CBF00230123C8E792FABA
:10102000A2F3B3FA83F301339B0603F0F843C7E757
:1010300092FAA2F0B0FA80F0013000F01F07012010
:10104000B840C4E792FAA2F3B3FA83F3013303F092
:101050001F0303EB43031B05C2E700BF020030047C
:10106000040060080800900C1000C0104000201917
:10107000000180210004002A002090360040C03A80
:101080000080F03E00002143000052470000844BE6
:1010900001000080000052C7000084CB00005AC746
:1010A00000008CCB185A0008CEB9930E01339B0672
:1010B00003F0F843E6B9900E013000F01F0701205D
:1010C000B8401843F6B9920E013202F01F0202EB4B
:1010D00042031E3B1B0543F00073034381E792FA72
:1010E000A2F3B3FA83F301339B0603F0F843E1E77D
:1010F00092FAA2F0B0FA80F0013000F01F07012050
:10110000B840DEE792FAA2F2B2FA82F2013202F0BD
:101110001F0202EB4202A2F11E031B0543F0007303
:10112000DBE712F4000F7FF4E6AD2A682B4B9A42FE
:1011300001D0002047E040F4000329498A6822F0EA
:10114000E07213438B60274B1B689B09264AA2FB66
:1011500003239B0903EB43039A00019202E0019BE6
:10116000013B0193019B002BF9D100202BE012F0F1
:10117000807F7FF4C4AD2A68184B9A4201D00020CA
:1011800021E040F0807316498A6822F0E072134330
:101190008B60002017E012F4800F1BD12A680F4BE0
:1011A0009A4201D000200EE040F480030C498A6886
:1011B00022F0E07213438B60002004E06B6D43F07B
:1011C00020036B650120002385F8503003B0F0BD8B
:1011D0000020F8E70020F6E70220F7E700000450BF
:1011E0000003045008000020632D3E05002800F095
:1011F000AF8010B504460368564A93420CD002F5FE
:101200008062934208D002F58062934204D04FF48A
:10121000EF71514804F0C7FBA368B3F5806F74D237
:10122000E368013B012B04D94FF4F0714A4804F004
:10123000BAFB23693BB1B3F5004F04D040F2E11192
:10124000454804F0B0FB6369FF2B64D8A369072B02
:1012500067D8E3693BB1B3F5002F04D04FF4F271C6
:101260003D4804F0A0FB236A3BB1B3F5003F04D036
:1012700040F2E511384804F096FB94F84130002B19
:1012800055D0242384F841302268136823F00103E9
:1012900013602268636823F07063136122689368A7
:1012A00023F400439360E368012B46D02268A368CF
:1012B00043F404439360E368022B44D022685368EC
:1012C00043F0007343F4004353602268D36823F46F
:1012D0000043D3602268236961690B43A16943EA33
:1012E0000123D3602268E369216A0B4313602268FB
:1012F000136843F00103136000206064202384F826
:101300004130206384F8420010BD40F2DF111248E2
:1013100004F049FB84E74FF4F1710F4804F043FBFC
:1013200094E740F2E3110C4804F03DFB91E784F8A8
:101330004030204604F04AF8A3E72268A36843F44B
:1013400000439360B7E723684FF400625A60B5E743
:101350000120704700540040505A000838B5044638
:101360000D460368214A93420BD002F580629342F6
:1013700007D002F58062934203D064211C4804F038
:1013800012FB35B1B5F5805F03D06521184804F034
:101390000AFB94F84130DBB2202B01D0022038BD8B
:1013A00094F84030012B1FD0012384F840302423CF
:1013B00084F841302268136823F001031360226827
:1013C000136823F48053136023681A6815431D6063
:1013D0002268136843F001031360202384F841302E
:1013E000002084F8400038BD022038BD0054004081
:1013F000885A000838B504460D460368204A9342CF
:101400000BD002F58062934207D002F580629342CE
:1014100003D092211B4804F0C6FA0F2D06D894F889
:101420004130DBB2202B06D0022038BD9321154875
:1014300004F0B9FAF3E794F84030012B1DD00123F2
:1014400084F84030242384F841302268136823F064
:10145000010313602268136823F4706343EA0525CF
:1014600015602268136843F001031360202384F899
:101470004130002084F8400038BD022038BD00BF54
:1014800000540040885A00082DE9F04105460F46F7
:1014900016469846069C2B689B683B4214BF012366
:1014A0000023B34214D0B4F1FF3FF4D001F084FD27
:1014B000A0EB0800844201D3002CECD1042385F872
:1014C00041306B6C43F001036B640120BDE8F08197
:1014D0000020BDE8F08181647047000030B583B022
:1014E000044601F069FD002C00F0C3800546226827
:1014F000624B9A4204D040F22F11614804F053FA33
:101500006368FF2B00F29280A368013B0F2B00F26F
:101510009380E36833B1102B04D04FF4997158488D
:1015200004F041FA23691F2B00F28C806369CBB170
:10153000B3F5807F16D0B3F5007F13D0B3F5407FAD
:1015400010D0B3F5806F0DD0B3F5A06F0AD0B3F50E
:10155000C06F07D0B3F5E06F04D04FF49A714848DC
:1015600004F021FAA369012B04D940F23511444853
:1015700004F019FA236A402B01D0002B68D1236AAA
:10158000402B08D0E36933B1802B04D040F23B11EB
:101590003B4804F008FA94F84030DBB2012B6AD0E3
:1015A000012384F8403094F84130002B56D0216854
:1015B0000B6823F47063A268013A43EA02230B60CC
:1015C000A36C00932B46002220212046FFF75CFFEE
:1015D000014628BB2068036823F07F4323F0D00333
:1015E0006568E26842EA0562E5692A43256A2A439A
:1015F0001343036020684268224B134025696269E7
:1016000042EA0542A5692A431343436022681368EE
:1016100043F00103136000236364012384F8413025
:10162000002384F84030084603B030BD4FF4987171
:10163000134804F0B8F967E740F23111104804F09C
:10164000B2F966E740F233110D4804F0ACF96DE7EA
:1016500040F237110A4804F0A6F990E784F84030C8
:10166000204603F003FF41F288312046FFF733FFA5
:101670009DE70121D7E70221D5E700BF001000A0B8
:10168000C05A0008FEF8E0FF70B404460020206352
:10169000A063606820B1022802D00120E06301E06D
:1016A0000020E0634FF48030A0644FF6FF702066A6
:1016B00000206065E36513F0010F49D139B10229BB
:1016C00010D84FF40030E0640020206504E00020D2
:1016D000E0644FF480252565032A34D8DFE802F062
:1016E00004161F290120F7E7802565635B085D016B
:1016F00025641B0163644023A365022929D1012AC3
:1017000023D0022A25D10823636522E08025656362
:101710005B089E0126645B016364A565EDE7C02557
:1017200065635B089D0125645B0163648023A36599
:10173000E3E7E02565635B089D0125645B01636465
:101740008023A365D9E70120D7E710236365D8E795
:10175000012070BC704730B4002404638463446883
:1017600024B1022C02D00024C46301E00124C4632C
:10177000002484644FF40035C5644FF4802505656A
:101780004465C3654FF6FF74046603290AD0042933
:101790000CD1012141640021032A26D8DFE802F0A0
:1017A0000811171E0D2141640021F5E70121F3E71F
:1017B000802242631B01036440238365084630BCDA
:1017C0007047802242635B0103648265F6E7C022B2
:1017D00042635B01036480238365EFE7E022426399
:1017E0005B01036480238365E8E70121E6E70000ED
:1017F0000E4B1B680E4AA2FB03231B0B9B000168C8
:101800000A6822F480320A603BB1013B0268126828
:1018100012F4803FF8D100207047D0F8803043F0B8
:101820004003C0F880300320704700BF080000204C
:101830001BECCB95F8B5002800F002820446036843
:10184000AF4A934207D02032934204D04FF4BF7185
:10185000AC4804F0A8F8E369AB4A93421ED0AB4A07
:1018600093421BD04BF68032934217D04AF6444243
:10187000934213D0B3F5FA4F10D045F2226293424F
:101880000CD0B3F57A5F09D042F61132934205D0FD
:10189000B3F5FA5F02D0002B40F0E680236B43B132
:1018A000082B06D0042B04D04FF4C171954804F0E6
:1018B0007AF86368032B00F2DD80636B402B0ED057
:1018C000602B0CD0802B0AD0A02B08D0C02B06D0C8
:1018D000E02B04D04FF4C2718A4804F064F8A36B83
:1018E0003BB1B3F5807F04D040F28511854804F008
:1018F0005AF8E36B012B04D94FF4C371814804F00B
:1019000052F8A368032B00F2BB8023693BB1B3F507
:10191000005F04D04FF4C4717A4804F044F863695E
:101920003BB1B3F5002F04D040F28911754804F0A3
:101930003AF8A369042B00F2A980636AB3F5805FCB
:1019400002D0002B40F0A880A36A83B1B3F5004F0A
:101950000DD0B3F5404F0AD0B3F5204F07D0B3F503
:10196000604F04D04FF4C671664804F01CF8E36A77
:1019700033B1102B04D040F28D11624804F013F8FB
:10198000E368022B00F28E80236C083BF82B00F2F8
:101990008F80636C013B7F2B00F29080A36C3BB186
:1019A000B3F5803F04D04FF4CB71564803F0FBFFF2
:1019B000E36C3BB1B3F5003F04D040F297115148BE
:1019C00003F0F1FF236D3BB1B3F5802F04D04FF44A
:1019D000CC714C4803F0E7FF636D182B74D8A36DEE
:1019E00043B1402B06D0802B04D04FF4CE71454834
:1019F00003F0D9FFE36D013B0F2B6BD8236EB3F5DA
:101A0000803F6DD294F87D30002B6FD02046FFF7D9
:101A1000EFFE0646002840F01581022384F87D3051
:101A2000E368012B6AD0022B66D00022A368022B48
:101A300070D0032B71D0012B74D00025344B1A6069
:101A4000E369002B71D1236A0F2B00F28880636851
:101A5000002B00F08A80022B00F08780E36B012BC3
:101A600000F0EB80002385E040F28111254803F06F
:101A70009AFF13E740F28311224803F094FF1CE71A
:101A800040F287111F4803F08EFF3EE74FF4C57107
:101A90001C4803F088FF50E740F28B11194803F00F
:101AA00082FF51E74FF4C771164803F07CFF6BE7E4
:101AB0004FF4CA71134803F076FF6AE740F29511BC
:101AC000104803F070FF69E740F29B110D4803F0E6
:101AD0006AFF84E740F29D110A4803F064FF8DE736
:101AE0004FF4CF71074803F05EFF8BE784F87C303A
:101AF000204603F027FD89E7202297E7102295E78B
:101B000004540140F85A000800EE0200007701007A
:101B1000005401404FF4006590E742F001024FF499
:101B200000658BE74FF4806588E74FF4006002F0B2
:101B30003FFC00EB80004100E3695B02B1FBF3F185
:101B4000414BA3FB0123DB08236203EB830042002C
:101B50008A1A082A7FF677AF0133236273E740F2CF
:101B600055213A4803F01FFF71E7E36B012B62D068
:101B70004FF40073226810683549014011602168F4
:101B800008686268276B3A43676B3A43A76B3A432E
:101B900013432B43656A2B4325692B4365692B430C
:101BA000226A43EA025303430B602268536823F41A
:101BB000604323F00F03536021684A68A369A06A59
:101BC0000343E06A034313434B6022689168214B4F
:101BD0000B40936020688268236C013B216D0B43AE
:101BE000A16C0B43E16C0B43616C013943EA0123A7
:101BF000134383602268D36823F47D6323F00F03CB
:101C00001B041B0CD3602068C268636DA16D0B437D
:101C1000216E43EA0143E16D013943EA0123134395
:101C2000C3600023C4F88030012284F87D2084F84A
:101C30007C303046F8BD00239CE74FF4007399E7F1
:101C40000126F6E70126F4E7CDCCCCCCF85A000803
:101C500010C005FF0080F8FFF8B506460C46154693
:101C60001F46042908D8032D0CD8042C1FD8DFE800
:101C700004F00F0F0F17170040F24F110F4803F039
:101C800092FEF0E74FF4A8710C4803F08CFEECE7ED
:101C90003B462A4621463046FFF7F6FC48B1F8BDE0
:101CA0003B462A4621463046FFF755FDF6E7012020
:101CB000F4E73046FFF7BEFDF1E700BFF85A000831
:101CC000002800F0FD8010B5044603687D4A934269
:101CD0000CD0A2F57842934208D002F5806293427C
:101CE00004D04FF4A271784803F05DFE63683BB105
:101CF000B3F5827F04D040F24511734803F053FEE0
:101D0000A36853B1B3F5806F07D0B3F5004F04D08B
:101D10004FF4A3716C4803F046FEE368B3F5706FAF
:101D200028D0B3F5606F25D0B3F5506F22D0B3F54E
:101D3000406F1FD0B3F5306F1CD0B3F5206F19D0B2
:101D4000B3F5106F16D0B3F5006F13D0B3F5E06F95
:101D500010D0B3F5C06F0DD0B3F5A06F0AD0B3F5B6
:101D6000806F07D0B3F5407F04D040F2471156484A
:101D700003F019FEA369B3F5007F08D03BB1B3F5BA
:101D8000802F04D04FF4A4714F4803F00CFE636B16
:101D9000082B02D0002B40F08180E36993B1082B1F
:101DA00010D0102B0ED0182B0CD0202B0AD0282BA3
:101DB00008D0302B06D0382B04D04FF4A571424800
:101DC00003F0F1FD236A33B1802B04D040F24B11B4
:101DD0003D4803F0E8FD636A33B1102B04D04FF4A3
:101DE000A671394803F0DFFD636A83B9236933B113
:101DF000022B04D040F24F11334803F0D4FD636945
:101E0000012B04D94FF4A8712F4803F0CCFD002317
:101E1000A36294F85D30002B46D0022384F85D3035
:101E20002268136823F040031360E368B3F5E06FA2
:101E300040D90021B3F5706F04D0B3F5E06F01D045
:101E40000022A262226B22B9B3F5E06F35D90223DA
:101E5000236322686368A0680343206903436069C1
:101E60000343A06900F400700343E0690343206A60
:101E70000343A06A034313602268638B03F00403E7
:101E8000606A0343606B0343E06803430B435360A2
:101E900000202066012384F85D3010BD40F2491116
:101EA000094803F080FD78E784F85C30204603F0B1
:101EB0009FFBB2E74FF48051BCE701232363C8E7DF
:101EC0000120704700300140305B000830B4036AE5
:101ED00023F480330362026A4468436D23F4803341
:101EE00023F070030D682B4322F400328D6842EA20
:101EF00005420C4DA8420ED005F5A055A8420AD0C7
:101F000005F58065A84206D0446043654B6883654B
:101F1000026230BC704724F480344D6944EA0524E1
:101F2000F2E700BF002C014030B4036A23F48013B1
:101F30000362026A4468436D23F0807323F4E04334
:101F40000D6843EA052322F400128D6842EA055227
:101F50000B4DA8420ED005F5A055A8420AD005F5B4
:101F60008065A84206D0446043654B68C365026241
:101F700030BC704724F480244D6944EA8524F2E79C
:101F8000002C01402DE9F04104460E46036A23F07F
:101F900001030362056A4768836923F4803323F0F1
:101FA00073030A6843EA020825F002058B681D43A3
:101FB000254B98421AD003F5A053984216D003F54A
:101FC0008063984212D0204B9C421FD003F5A0534F
:101FD0009C421BD003F580639C4217D06760C4F815
:101FE0001880736863632562BDE8F081F36833B1DC
:101FF000082B04D041F28E71144803F0D4FC25F074
:102000000805F3681D4325F00405DCE7B369B3F563
:10201000007F00D05BB97369B3F5807F00D063B9EE
:1020200027F4407773691F43B3691F43D6E741F232
:102030009B71064803F0B7FCEDE741F29C71034841
:1020400003F0B1FCECE700BF002C0140685B000826
:102050002DE9F04104460F46036A23F480730362BE
:10206000056AD0F80480C36923F4803323F0730336
:102070000E681E4325F400758B6845EA0325234B43
:10208000984212D0214B9C4220D003F5A0539C4291
:102090001CD003F580639C4218D0C4F80480E6612C
:1020A0007B68E3632562BDE8F081CB6833B1082B20
:1020B00004D041F62401164803F075FC25F40065B0
:1020C000FB6845EA032525F48065DBE7BB69B3F5CA
:1020D000007F00D06BB97B69B3F5807F00D073B906
:1020E00028F440587B6948EA0318BB6948EA03189A
:1020F000D3E741F63101064803F055FCEBE741F622
:102100003201034803F04FFCEAE700BF002C014016
:10211000685B00082DE9F04104460F46036A23F48A
:1021200080530362056AD0F80480C36923F080738A
:1021300023F4E6430E6843EA062625F400558B682F
:1021400045EA0335114B98420FD003F5A05398424E
:102150000BD003F58063984207D0C4F80480E66191
:102160007B6823642562BDE8F0817B69B3F5807FDD
:1021700000D02BB928F480487B6948EA8318ECE743
:1021800041F67001024803F00EFCF3E7002C014019
:10219000685B000803681C4A904227D0B0F1804F6A
:1021A00024D0194A904226D0B0F1804F23D002F5B6
:1021B000A05290421FD002F5806290421BD023F0C3
:1021C00080034A69134303608B68C3620B688362B0
:1021D0000D4B984214D003F5A053984210D003F54C
:1021E000806398420CD001234361704723F0700351
:1021F0004A681343D5E723F44073CA681343DEE704
:102200000B690363EFE700BF002C0140002857D0A3
:1022100010B5044603682B4A934217D0B3F1804FA0
:1022200014D0A2F58E32934210D002F58062934210
:102230000CD002F59632934208D002F580629342A8
:1022400004D040F2A241204803F0ADFBA36863B183
:10225000102B0AD0202B08D0402B06D0602B04D0A6
:1022600040F2A341184803F09EFB236953B1B3F534
:10227000807F07D0B3F5007F04D040F2A44112481C
:1022800003F091FBA36933B1802B04D040F2A54148
:102290000D4803F088FB94F83D305BB1022384F8CD
:1022A0003D30211D2068FFF775FF012384F83D3084
:1022B000002010BD84F83C30204603F0E9F9EDE73A
:1022C00001207047002C0140685B00082DE9F041B7
:1022D00004460F46036A23F010030362056AD0F830
:1022E0000480836923F0807323F4E6430E6843EA95
:1022F000062625F020058B6845EA0315224B9842F7
:1023000012D0214B9C4220D003F5A0539C421CD0FC
:1023100003F580639C4218D0C4F80480A6617B68F2
:10232000A3632562BDE8F081CB6833B1082B04D0EC
:1023300041F2D971154803F036FB25F08005FB68A2
:1023400045EA031525F04005DBE7BB69B3F5007FDF
:1023500000D06BB97B69B3F5807F00D073B928F4E6
:1023600040687B6948EA8308BB6948EA8308D3E789
:1023700041F2E771054803F016FBEBE741F2E87123
:10238000024803F010FBEAE7002C0140685B0008FC
:1023900070B504460D46164682B1042A0ED0082AAE
:1023A0000CD00C2A0AD0102A08D0142A06D03C2AB5
:1023B00004D040F61C61904803F0F5FA2B68602BBE
:1023C00012D0702B10D08D4A93420DD01032934210
:1023D0000AD01032934207D01032934204D040F614
:1023E0001D61854803F0DFFAAB6833B1022B04D0DE
:1023F00040F61E61804803F0D6FA2B6933B1042BF6
:1024000004D040F61F617C4803F0CDFA94F83C30CC
:10241000012B00F0EE80012384F83C30022384F885
:102420003D30142E3DD8DFE816F015003C003C008E
:102430003C0043003C003C003C0068003C003C0089
:102440003C0088003C003C003C00A9003C003C00F3
:102450003C00C60023686A4A93420FD0B3F1804F14
:102460000CD002F5A052934208D002F5806293424C
:1024700004D040F62B61604803F095FA29462068A5
:10248000FFF780FD2268936943F008039361226897
:10249000936923F0040393612268936929690B43CC
:1024A0009361012384F83D30002084F83C0070BD26
:1024B0002368534A93420BD0B3F1804F08D002F502
:1024C000A052934204D040F63C614B4803F06BFAB3
:1024D00029462068FFF7FAFE2268936943F40063F7
:1024E00093612268936923F48063936122689369FE
:1024F000296943EA01239361D3E72368404A934261
:1025000007D0B3F1804F04D040F64D613A4803F054
:102510004AFA29462068FFF79BFD2268D36943F0F9
:102520000803D3612268D36923F00403D3612268CE
:10253000D36929690B43D361B3E72368304A9342D7
:1025400007D0B3F1804F04D040F65E612A4803F013
:102550002AFA29462068FFF7DDFD2268D36943F493
:102560000063D3612268D36923F48063D361226856
:10257000D369296943EA0123D36192E72268204B9A
:102580009A4204D040F66F611B4803F00CFA2946CA
:102590002068FFF79BFC2268536D43F008035365E6
:1025A0002268536D23F0040353652268536D296933
:1025B0000B43536575E72268114B9A4204D04FF4E0
:1025C00068610D4803F0EFF929462068FFF7ACFC7D
:1025D0002268536D43F4006353652268536D23F4FE
:1025E000806353652268536D296943EA012353656B
:1025F00057E7022070BD00BF685B00084000010083
:10260000002C0140F8B504460D460368494A934240
:1026100013D0B3F1804F10D0A2F58E3293420CD07C
:1026200002F58062934208D002F59632934204D0BC
:1026300040F26761404803F0B6F92B6893B1102B64
:1026400010D0202B0ED0302B0CD0402B0AD0502B8A
:1026500008D0602B06D0702B04D04FF4CD613648E3
:1026600003F0A1F9AB68802B00D013BB94F83C3089
:10267000012B5DD0012384F83C30022384F83D30E7
:1026800023685E689F682B4A934218D026F0700634
:102690002B681E4327F08007AB681F4323685E60EA
:1026A00023689F60012384F83D30002084F83C00BB
:1026B000F8BD40F26961204803F075F9D6E76B6810
:1026C0008BB3B3F5801F2ED0B3F5001F2BD0B3F51D
:1026D000401F28D0B3F5800F25D0B3F5A00F22D02E
:1026E000B3F5C00F1FD0B3F5E00F1CD0B3F5000F4A
:1026F00019D0B3F5100F16D0B3F5200F13D0B3F5E2
:10270000300F10D0B3F5400F0DD0B3F5500F0AD0F5
:10271000B3F5600F07D0B3F5700F04D040F27B61C2
:10272000054803F040F926F470066B681E43ADE7D8
:102730000220F8BD002C0140A05B00082DE9784B79
:1027400004464268994B9A4200F2A280A368B3F112
:10275000805F08D03BB1B3F5805F04D040F62E31E6
:10276000934803F020F92268924B9A4200F0968039
:10277000E368B3F5805F0BD053B1B3F5405F07D08A
:10278000B3F5005F04D040F63531894803F00BF90A
:10279000236A3BB1B3F5006F04D040F6363184486C
:1027A00003F001F9236953B1B3F5806F07D0B3F596
:1027B000C06F04D040F639317D4803F0F4F8636906
:1027C00033F00C0200D123B940F63A31784803F0D7
:1027D000EAF8A3696BB1B3F5807F0AD0B3F5007F47
:1027E00007D0B3F5407F04D040F63B31704803F08A
:1027F000DAF8E3693BB1B3F5004F04D040F63C3161
:102800006B4803F0D0F8A36822691343626913434D
:10281000E269134321680868674A024013430B606A
:102820002268536823F44053E1680B435360A36963
:10283000226860498A4201D0216A0B43916821F4E1
:1028400030610B43936023685C4A934233D05C4A07
:10285000934244D05B4A93425AD0564A93426DD039
:102860001025544A934200F08A80E369B3F5004F83
:1028700000F00881082D00F29381DFE815F0520185
:102880006901730191017E0191019101910188011A
:1028900040F62D31464803F086F857E7E368002BF1
:1028A00080D0B3F5005F3FF47DAF40F63131404852
:1028B00003F079F876E702F55842D2F8882002F062
:1028C0000302032A09D8DFE802F0020452060125B8
:1028D000C7E70425C5E70825C3E71025C1E702F5CA
:1028E000E632D2F8882002F00C020C2A0ED8DFE87B
:1028F00002F0070D0D0D090D0D0D400D0D0D0B0016
:102900000025AEE70425ACE70825AAE71025A8E7CF
:1029100002F5E432D2F8882002F03002102A09D001
:1029200005D9202A27D0302A06D1082599E71AB9D7
:10293000002596E7042594E7102592E702F5C832B2
:10294000D2F8882002F44062B2F5806F0BD007D92C
:10295000B2F5006F11D0B2F5406F06D1082580E7BF
:102960001AB900257DE704257BE7102579E70225C4
:1029700077E7022575E7022573E7022571E7082D41
:1029800011D8DFE805F0081005100C101010230016
:102990000D4800261DE001F0B1F8002619E000F016
:1029A00059FB002615E00020012612E080969800D1
:1029B000D85B000800800040F369FFEF0038014059
:1029C00000440040004800400024F4004FF4004060
:1029D0000026002800F0B680626802EB42039842AD
:1029E000C0F0E180B0EB023F00F2DF80082D46D856
:1029F000DFE805F005451F45294545453B0001F049
:102A00007DF800234FEA10694FEA002862685008F9
:102A100018EB000B49F1000C58466146FDF778FCB5
:102A2000A0F54072654B9A4200F2C1802368D860DD
:102A300088E05508002362480021401941F1000157
:102A4000FDF766FCECE700F005FB00234FEA106998
:102A50004FEA00286268500818EB000B49F1000C9F
:102A600058466146FDF754FCDAE750080021002380
:102A700010F5000041F10001FDF74AFCD0E7012606
:102A80000020CDE7082D49D8DFE805F0051E2948CC
:102A9000344848483F0001F031F86268530803EBBE
:102AA0004003B3FBF2F39BB20026A3F110014FF6F3
:102AB000EF7291427DD89AB222F00F02C3F3420323
:102AC00013432268D3603DE001F02AF8626853089E
:102AD00003EB4003B3FBF2F39BB20026E5E7626829
:102AE000530803F1F47303F59043B3FBF2F39BB285
:102AF0000026DAE700F0AEFA6268530803EB400301
:102B0000B3FBF2F39BB20026CFE76268530803F5EC
:102B10008033B3FBF2F39BB20026C6E70126002305
:102B2000C3E700F0EBFF636800EB5300B0FBF3F08A
:102B300080B20026A0F110024FF6EF739A423AD805
:102B40002368D8600023236663663046BDE8788B2F
:102B500000F0E6FF636800EB5300B0FBF3F080B2D7
:102B60000026E7E76368580800F5740000F5105088
:102B7000B0FBF3F080B20026DCE700F06BFA63688C
:102B800000EB5300B0FBF3F080B20026D2E763689D
:102B9000580800F50040B0FBF3F080B20026C9E70A
:102BA00001260020C6E70126CCE70126CAE7012658
:102BB000C8E70126C6E70126C4E700BFFFFC0F00F7
:102BC000000024F410B50446436AFF2B00F2BE80D7
:102BD000636A13F0010F10D0A36A3BB1B3F5003F55
:102BE00004D040F65A41684802F0DDFE226853687E
:102BF00023F40033A16A0B435360636A13F0020F9E
:102C000010D0E36A3BB1B3F5803F04D040F6614198
:102C10005D4802F0C8FE2268536823F48033E16AFD
:102C20000B435360636A13F0040F10D0236B3BB166
:102C3000B3F5802F04D040F66841534802F0B3FE4C
:102C40002268536823F48023216B0B435360636A2B
:102C500013F0080F10D0636B3BB1B3F5004F04D0F5
:102C600040F66F41484802F09EFE2268536823F404
:102C70000043616B0B435360636A13F0100F10D075
:102C8000A36B3BB1B3F5805F04D040F676413E487C
:102C900002F089FE2268936823F48053A16B0B43F2
:102CA0009360636A13F0200F10D0E36B3BB1B3F570
:102CB000005F04D040F67D41334802F074FE226884
:102CC000936823F40053E16B0B439360636A13F042
:102CD000400F25D023682D4A93420CD0A2F57442B0
:102CE000934208D002F58062934204D040F68441BA
:102CF000254802F058FE236C3BB1B3F5801F04D089
:102D000040F68541204802F04EFE2268536823F4C5
:102D10008013216C0B435360236CB3F5801F1BD0D1
:102D2000636A13F0800F10D0A36C3BB1B3F5002F92
:102D300004D040F69241144802F035FE22685368F0
:102D400023F40023A16C0B43536010BD40F65541A2
:102D50000D4802F028FE3BE7636C6BB1B3F5001F32
:102D60000AD0B3F5800F07D0B3F5C00F04D040F6FA
:102D70008A41054802F017FE2268536823F4C00315
:102D8000616C0B435360CBE7D85B0008003801400F
:102D90002DE9F04105460F4616469846069C2B68DD
:102DA000DB6937EA03030CBF01230023B3421DD1C3
:102DB000B4F1FF3FF3D000F0FFF8A0EB080084422D
:102DC00001D3002CEBD12A68136823F4D07313606D
:102DD0002A68936823F00103936020236B67AB6735
:102DE000002385F870300320BDE8F0810020BDE8A5
:102DF000F08130B583B004460023C36700F0DCF8EF
:102E0000054623681B6813F0080F0CD123681B6864
:102E100013F0040F15D120236367A367002084F803
:102E2000700003B030BD6FF07E4300930346002274
:102E30004FF400112046FFF7ABFF0028E6D0032037
:102E4000EFE76FF07E4300932B4600224FF48001A2
:102E50002046FFF79DFF0028DDD00320E1E70000BA
:102E600000285DD010B504468369002B38D0036874
:102E70002D4A934210D0A2F5744293420CD002F531
:102E80008062934208D002F56052934204D040F22F
:102E90003F11264802F087FD636F002B36D02423B4
:102EA00063672268136823F0010313602046FFF76D
:102EB00045FC012836D0636A73BB2268536823F44B
:102EC000904353602268936823F02A03936022683A
:102ED000136843F0010313602046FFF78AFF10BD1B
:102EE0000368114A9342D7D0A2F574429342D3D0DB
:102EF00002F580629342CFD002F560529342CBD06C
:102F00004FF4A271094802F04EFDC5E784F8703015
:102F1000204602F06DFCC2E72046FFF753FECCE7E7
:102F20000120704710BD00BF00380140D85B000889
:102F3000104B1B680BB90120704710B504464FF4C5
:102F40007A70B0FBF3F30C4A1068B0FBF3F002F0B8
:102F5000DBF868B90F2C01D9012010BD00222146F1
:102F60004FF0FF3002F08CF8044B1C60002010BDC5
:102F7000012010BD000000200800002004000020F7
:102F800010B5032002F05EF80020FFF7D1FF10B16A
:102F90000124204610BD044602F0E0F8F9E70000E5
:102FA000034A1368034909680B441360704700BF64
:102FB0003000002000000020014B1868704700BF5F
:102FC0003000002030B583B00546204B9B6D13F0D8
:102FD000805F0BD001F0D8FFB0F5007F17D0802DB7
:102FE0001FD82DD0702D2DD000211BE0174CA36DC4
:102FF00043F08053A365A36D03F080530193019BBD
:1030000001F0C2FFA36D23F08053A365E4E7802D98
:1030100003D9A02D03D9022104E0002102E00121FF
:1030200000E003210A4A136823F007030B431360EF
:10303000136803F00703994206D0012003B030BDA6
:103040000221EFE70121EDE70020F7E70010024041
:1030500000200240284A9368D26802F0030213F06D
:103060000C030AD00C2B06D0042B1FD0082B20D029
:103070000020024610E0012AF6D11F4A126812F021
:10308000080F0CD11C4AD2F89420C2F303221B492A
:1030900051F8222043B100200C2B0DD07047164A66
:1030A0001268C2F30312F2E71046F5E71448002253
:1030B000F2E714480022EFE70F4BDB6803F003034D
:1030C000022B15D0032B15D00B49C868C0F3021092
:1030D000431CC868C0F3062000FB02F0B0FBF3F00D
:1030E000CB68C3F3416301335B00B0FBF3F0D5E77A
:1030F000034AE9E7034AE7E700100240785D000869
:103100000024F40000127A00002800F0CB83F0B510
:1031100083B00446036813B113F03F0F4FD0AC4B9C
:103120009D6805F00C05DE6806F00306236813F0C1
:10313000100F00F0B380A369012B04D940F2A7114E
:10314000A44802F030FCE369FF2B3ED8236AD3B1D8
:10315000102B18D0202B16D0302B14D0402B12D08F
:10316000502B10D0602B0ED0702B0CD0802B0AD09F
:10317000902B08D0A02B06D0B02B04D040F2A91180
:10318000944802F010FC45B30C2D24D0A369002B09
:1031900000F0D1808E4A136843F001031360FFF7FB
:1031A0000BFF07468A4B1B6813F0020F40F0B080FC
:1031B000FFF702FFC01B0228F4D9032380E34FF47A
:1031C000CF71844802F0EFFBA9E74FF4D471814836
:1031D00002F0E9FBBAE7012ED8D17D4B1B6813F052
:1031E000020F03D0A369002B00F05F83206A784BA5
:1031F0001B6813F0080F1DD0754B1B6803F0F0031C
:1032000083421ED2FFF7DEFE002840F05083704B51
:103210001A6842F008021A601A6822F0F002216A65
:103220000A431A605A6822F47F42E16942EA0122A5
:103230005A601EE0664BD3F894301B0903F0F0038C
:10324000DEE7634B1A6842F008021A601A6822F03F
:10325000F002216A0A431A605A6822F47F42E16947
:1032600042EA01225A60206AFFF7ACFE002840F0D3
:103270002083FFF7EFFE564B9B68C3F30313564AB8
:10328000D35C03F01F03D840544B1860544B1868AC
:10329000FFF74EFE0346002840F01283236813F028
:1032A000010F67D0636853B1B3F5803F07D0B3F522
:1032B000A02F04D040F21121464802F074FB082DE3
:1032C0004FD00C2D4BD06368B3F5803F00F08A805F
:1032D000B3F5A02F00F08C803D4B1A6822F48032A9
:1032E0001A601A6822F480221A606368002B00F0CA
:1032F0008C80FFF761FE0746354B1B6813F4003FD7
:1033000038D1FFF759FEC01B6428F5D90323D7E253
:103310002F4B1A6842F008021A601A6822F0F00275
:10332000216A0A431A605A6822F47F42E16942EA3C
:1033300001225A60B2E7264A136823F001031360A2
:10334000FFF73AFE0746224B1B6813F0020FA5D089
:10335000FFF732FEC01B0228F5D90323B0E2032E8B
:10336000B1D11B4B1B6813F4003F03D06368002BE3
:1033700000F0A182236813F0020F6ED0E3683BB126
:10338000B3F5807F04D04FF41171124802F00BFBAB
:1033900023691F2B48D8042D4ED00C2D4AD0E3684A
:1033A000002B00F088800A4A136843F4807313608E
:1033B000FFF702FE0646064B1B6813F4806F71D1BF
:1033C000FFF7FAFD801B0228F5D9032378E200BF3E
:1033D00000100240105C0008605D0008080000203A
:1033E00004000020AF4A136843F4803313607CE785
:1033F00003F18043A3F53C331A6842F480221A603B
:103400001A6842F480321A606FE7FFF7D5FD07466D
:10341000A44B1B6813F4003FACD0FFF7CDFDC01BDD
:103420006428F5D903234BE240F245219E4802F07F
:10343000BAFAB0E7022EB2D19A4B1B6813F4806F30
:1034400003D0E368002B00F03882964A536823F0DB
:10345000F853216943EA01635360236813F0080FAE
:1034600054D06369012B04D940F285218E4802F0C3
:103470009AFA63699BB38B4AD2F8943043F0010304
:10348000C2F89430FFF798FD0646864BD3F8943087
:1034900013F0020F3AD1FFF78FFD801B0228F4D9F9
:1034A00003230DE27F4A536823F0F853216943EA6E
:1034B00001635360D1E77B4A136823F48073136080
:1034C000FFF77AFD0646774B1B6813F4806FC4D074
:1034D000FFF772FD801B0228F5D90323F0E1714A42
:1034E000D2F8943023F00103C2F89430FFF764FD62
:1034F00006466C4BD3F8943013F0020F06D0FFF75A
:103500005BFD801B0228F4D90323D9E1236813F063
:10351000040F00F08580A368012B06D9052B04D089
:103520004FF43671604802F03EFA5E4B9B6D13F02B
:10353000805F36D15B4B9A6D42F080529A659B6DED
:1035400003F080530193019B0126584B1B6813F431
:10355000807F28D0A368012B39D0052B3FD0514B59
:10356000D3F8902022F00102C3F89020D3F89020E5
:1035700022F00402C3F89020A368002B3DD0FFF78F
:103580001BFD0746474BD3F8903013F0020F46D18E
:10359000FFF712FDC01B41F288339842F2D9032392
:1035A0008EE10026D1E7414A136843F4807313602B
:1035B000FFF702FD07463D4B1B6813F4807FC9D11E
:1035C000FFF7FAFCC01B0228F5D9032378E1354A3E
:1035D000D2F8903043F00103C2F89030CCE7314B81
:1035E000D3F8902042F00402C3F89020D3F8902042
:1035F00042F00102C3F89020BEE7FFF7DDFC07466A
:10360000284BD3F8903013F0020F08D0FFF7D4FC0A
:10361000C01B41F288339842F2D9032350E126BB04
:10362000236813F0200F43D0636A012B04D940F2C2
:103630003D311D4802F0B7F9636AE3B1194AD2F887
:10364000983043F00103C2F89830FFF7B5FC064606
:10365000144BD3F8983013F0020F29D1FFF7ACFCCC
:10366000801B0228F4D903232AE10E4A936D23F02C
:1036700080539365D4E70B4AD2F8983023F00103C6
:10368000C2F89830FFF798FC0646064BD3F89830FE
:1036900013F0020F0CD0FFF78FFC801B0228F4D927
:1036A00003230DE100100240105C00080070004090
:1036B000A36A022B2DD8A36A002B00F000810C2DE9
:1036C00000F0BA80022B2AD0824B1A6822F0807256
:1036D0001A601B6813F0006F04D17E4AD36823F090
:1036E0000303D3607B4AD36823F0887323F48033C9
:1036F000D360FFF761FC0446764B1B6813F0007F34
:1037000000F09880FFF758FC001B0228F4D903232F
:10371000D6E040F26631704802F045F9CBE7E36A43
:10372000032B3BD8236B013B072B3DD8636B083B36
:103730004E2B3FD8A36B023B1D2B41D8E36B022BD2
:103740000AD0042B08D0062B06D0082B04D040F258
:103750007631614802F027F9236C022B0AD0042B42
:1037600008D0062B06D0082B04D040F277315A48F7
:1037700002F019F9574A136823F080731360FFF7BA
:103780001BFC0546534B1B6813F0007F1ED0FFF750
:1037900013FC401B0228F5D9032391E04FF45C7120
:1037A0004D4802F000F9BDE740F271314A4802F09D
:1037B000FAF8BBE740F27231474802F0F4F8B9E793
:1037C0004FF45D71444802F0EEF8B7E7414AD36820
:1037D00042491940E36A206B013843EA0013606BE9
:1037E00043EA0023E06B4008013843EA4053206C71
:1037F0004008013843EA4063A06B43EAC0630B43CF
:10380000D360136843F080731360D36843F0807310
:10381000D360FFF7D1FB04462E4B1B6813F0007FEB
:1038200006D1FFF7C9FB001B0228F5D9032347E0A7
:10383000002345E0002343E0012B44D0254BDB6807
:1038400003F00301E26A914201D0012338E003F062
:103850007002216B0139B2EB011F01D001232FE06F
:1038600003F4FE42616BB2EB012F01D0012327E08C
:1038700003F07842A16BB2EBC16F01D001231FE0CE
:1038800003F4C001E26B5208013AB1EB425F1CD174
:1038900003F0C063226C5208013AB3EB426F16D0BA
:1038A00001230DE0012318467047012308E001239E
:1038B00006E0012304E0012302E0012300E00023ED
:1038C000184603B0F0BD0123FAE70123F8E700230F
:1038D000F6E700BF00100240105C00088C809D01DC
:1038E000002800F0F58070B504460D460368013BE2
:1038F0000E2B14D8042D18D8774B1B6803F0070340
:103900009D4218D9744A136823F007032B431360B0
:10391000136803F007039D420DD0012070BD40F2F3
:103920002E416E4802F03FF8E4E740F22F416B4829
:1039300002F039F8E0E7236813F0010F44D0636820
:10394000032B0DD86368032B10D0022B2ED0002B35
:1039500033D1634A126812F0020F0DD1012070BDFD
:1039600040F246415D4802F01EF8EBE75C4A1268FF
:1039700012F0007F00F0AE8059498A6822F00302FD
:1039800013438B60FFF718FB0646554B9B6803F00B
:103990000C036268B3EB820F16D0FFF70DFB801BA0
:1039A00041F288339842F0D9032070BD4C4A126826
:1039B00012F4003FE0D1012070BD494A126812F4B0
:1039C000806FD9D1012070BD236813F0020F1DD084
:1039D000A368A3B1802B12D0902B10D0A02B0ED0B7
:1039E000B02B0CD0C02B0AD0D02B08D0E02B06D0A7
:1039F000F02B04D040F2A241384801F0D4FF384AFD
:103A0000936823F0F003A1680B439360324B1B686B
:103A100003F007039D420CD22F4A136823F00703DB
:103A20002B431360136803F007039D4201D001206C
:103A300070BD236813F0040F19D0E36883B1B3F5A8
:103A4000806F0DD0B3F5A06F0AD0B3F5C06F07D06B
:103A5000B3F5E06F04D040F2C141204801F0A3FF6C
:103A60001F4A936823F4E063E1680B439360236883
:103A700013F0080F1AD0236983B1B3F5806F0DD00E
:103A8000B3F5A06F0AD0B3F5C06F07D0B3F5E06F00
:103A900004D04FF49961114801F085FF104A9368F2
:103AA00023F46053216943EAC1039360FFF7D2FA1C
:103AB0000B4B9B68C3F303130A4AD35C03F01F0349
:103AC000D840094B1860094B1868FFF731FA70BDF0
:103AD00001207047012070BD00200240105C0008EA
:103AE00000100240605D0008080000200400002073
:103AF000014B1868704700BF0800002008B5FFF7A9
:103B0000F7FF054B9B68C3F30223044AD35C03F021
:103B10001F03D84008BD00BF00100240705D0008C0
:103B200008B5FFF7E5FF054B9B68C3F3C223044AC2
:103B3000D35C03F01F03D84008BD00BF0010024053
:103B4000705D0008B0F5006F28D0002318460028EB
:103B500062D1B3F5000F2DD0002B5DD103F180436E
:103B600003F504331B6913F4803F4FD02B4BD86807
:103B7000C0F302100130B1FBF0F11869C0F3062068
:103B80001B69DB0E05D1254B1B6913F4003F3BD1AC
:103B9000072300FB01F0B0FBF3F070471F4BD3F895
:103BA000883003F44003B3F5400F01D00020CEE786
:103BB0001B48CCE703F17E5303F50433DB6813F4B1
:103BC000803F19D0154BD868C0F302100130B1FB0B
:103BD000F0F1D868C0F30620DB68DB0E05D10F4B8F
:103BE000DB6813F4003F05D1072300FB01F0B0FBB5
:103BF000F3F070471123F8E7084B1B6813F4806F4C
:103C000001D00848704770471123C2E7034B1B6877
:103C100013F4806F01D003487047704700100240D2
:103C200068FF1F000024F400F8B504460E46036840
:103C3000032B26D86368013B072B28D8A368083BD1
:103C40004E2B2AD8A3697F4A134204D023F08873ED
:103C500023F4803323B140F652317B4801F0A3FEB8
:103C60007A4BDB6813F0030F2BD0784BDB6803F043
:103C700003032268934216D00125002D5AD028460E
:103C8000F8BD40F64F31704801F08DFED2E74FF499
:103C900035616D4801F087FED0E740F651316A4842
:103CA00001F081FECEE7002A42D0684BDB68C3F307
:103CB000021301336268934201D00125DDE700253C
:103CC000DBE72368022B18D0032B1DD0012B0DD06E
:103CD0000125002DD1D15D48C26822F073026168D0
:103CE000013943EA01131343C360C6E7574A126818
:103CF00012F0020F14D00025EBE7544A126812F4B8
:103D0000806F0FD00025E4E7504A126812F4003F9C
:103D10000AD14E4A126812F4802F07D00025D8E746
:103D20000125D6E70125D4E70025D2E70125D0E714
:103D30000125A2E7454A136823F080631360FFF76B
:103D40003BF90746414B1B6813F0006F05D0FFF7A6
:103D500033F9C01B0228F5D90325002D8FD1002E81
:103D600032D1E368023B1D2B28D838490B6923F078
:103D7000784323F4FE43A068E268D20642EA0022B8
:103D800013430B61314A136843F080631360FFF7FC
:103D900013F906462D4B1B6813F0006F05D1FFF792
:103DA0000BF9801B0228F5D90325002D7FF467AF9E
:103DB000264A1369A1690B43136160E740F6A531F8
:103DC000214801F0F0FDD0E7012E1DD06369022BE0
:103DD0000AD0042B08D0062B06D0082B04D040F6BE
:103DE000DB31194801F0DFFD1848026922F0C0629A
:103DF00022F4FE42A16863695B08013B5B0643EA6B
:103E0000012313430361BDE72369022B0AD0042B6E
:103E100008D0062B06D0082B04D040F6C9310A483A
:103E200001F0C1FD0948026922F4C00222F4FE42F9
:103E3000A16823695B08013B5B0543EA0123134347
:103E400003619FE700001101485C00080010024078
:103E50002DE9F04182B004460368614A1A4219D044
:103E6000236813F4006F36D0636C4BB1B3F5000FC9
:103E700006D0B3F5400F03D0D3215A4801F093FD8B
:103E8000636CB3F5000F19D0B3F5400F07D0E3B161
:103E9000012705E0CB21534801F085FDE0E700272D
:103EA000002F40F08480504AD2F8883023F4400339
:103EB000616C0B43C2F888303E460EE04A4AD36834
:103EC00043F48033D3600027EAE70021201DFFF789
:103ED000ABFE0746E4E700263746236813F4003FAD
:103EE00000F08B80E36D6BB1B3F5807F0AD0B3F542
:103EF000007F07D0B3F5407F04D04FF4A371394859
:103F000001F051FD384B9B6D13F0805F51D10123BF
:103F1000002B50D0344B9A6D42F080529A659B6DC5
:103F200003F080530193019B4FF001082F4A13685F
:103F300043F480731360FFF73FF805462B4B1B6873
:103F400013F4807F05D1FFF737F8401B0228F5D91D
:103F50000327002F4CD1244BD3F8903013F4407337
:103F600015D0E26D934212D01F4AD2F8903023F45C
:103F70004073D2F8901041F48031C2F89010D2F81A
:103F8000901021F48031C2F89010C2F8903013F0F4
:103F9000010F13D1002F40F0CE81134AD2F8903098
:103FA00023F44073E16D0B43C2F8903021E03E46AC
:103FB00093E70023ACE74FF00008B7E7FEF7FCFFFC
:103FC0000546094BD3F8903013F0020FE2D1FEF70B
:103FD000F3FF401B41F288339842F2D90327D9E717
:103FE000E7EF0E00485C000800100240007000403F
:103FF0003E46B8F1000F40F0A081236813F0010F96
:1040000014D0236A012B08D9032B06D0022B04D02D
:1040100040F29B11B34801F0C6FCB34AD2F8883095
:1040200023F00303216A0B43C2F88830236813F09E
:10403000020F15D0636A53B1042B08D00C2B06D0A5
:10404000082B04D040F2A511A64801F0ACFCA64A0A
:10405000D2F8883023F00C03616A0B43C2F8883031
:10406000236813F0040F15D0A36A53B1102B08D0A6
:10407000302B06D0202B04D040F2B111994801F02A
:1040800092FC994AD2F8883023F03003A16A0B439E
:10409000C2F88830236813F0200F18D0E36A6BB1A0
:1040A000B3F5806F0AD0B3F5406F07D0B3F5006F5A
:1040B00004D040F2D9118B4801F075FC8A4AD2F83D
:1040C000883023F44063E16A0B43C2F888302368E8
:1040D00013F4007F18D0E36B6BB1B3F5802F0AD0D7
:1040E000B3F5002F07D0B3F5402F04D04FF4F17192
:1040F0007C4801F058FC7C4AD2F8883023F44023F5
:10410000E16B0B43C2F88830236813F4806F18D03A
:10411000236C6BB1B3F5801F0AD0B3F5001F07D035
:10412000B3F5401F04D040F2E9116E4801F03BFCAA
:104130006D4AD2F8883023F44013216C0B43C2F847
:104140008830236813F0400F15D0236B53B1B3F5BB
:10415000805F07D0B3F5005F04D040F2F1116148F1
:1041600001F021FC604AD2F8883023F44053216BDF
:104170000B43C2F88830236813F0800F15D0636BAF
:1041800053B1B3F5804F07D0B3F5004F04D040F2E0
:10419000FD11544801F007FC534AD2F8883023F44B
:1041A0004043616B0B43C2F88830236813F4807F6F
:1041B00015D0A36B53B1B3F5803F07D0B3F5003FE3
:1041C00004D040F20921474801F0EDFB464AD2F8FD
:1041D000883023F44033A16B0B43C2F88830236846
:1041E00013F4005F21D0A36C6BB1B3F1806F0AD0E0
:1041F000B3F1006F07D0B3F1406F04D040F2222139
:10420000384801F0D0FB384AD2F8883023F04063B8
:10421000A16C0B43C2F88830A36CB3F1006F00F0BF
:104220009280B3F1806F00F09380236813F4002F25
:104230001FD0E36C6BB1B3F1806F0AD0B3F1006FA4
:1042400007D0B3F1406F04D040F24321254801F07C
:10425000AAFB254AD2F8883023F04063E16C0B4377
:10426000C2F88830E36CB3F1006F7AD0B3F1806F9D
:104270007CD0236813F4802F1FD0236D6BB1B3F172
:10428000806F0AD0B3F1006F07D0B3F1406F04D054
:104290004FF41A71134801F086FB134AD2F88830A4
:1042A00023F04063216D0B43C2F88830236DB3F1D6
:1042B000006F64D0B3F1806F66D0236813F4804F31
:1042C0001ED0636D53B1B3F1805F07D0B3F1405F8F
:1042D00004D04FF42271034801F065FB024AD2F882
:1042E000883003E0485C00080010024023F040538F
:1042F000616D0B43C2F88830636DB3F1805F4BD0C2
:10430000236813F4004F12D0A36D3BB1B3F1804F7B
:1043100004D04FF42D71244801F045FB234AD2F814
:10432000883023F08043A16D0B43C2F888303046BB
:1043300002B0BDE8F0813E465BE61C4A936D23F077
:104340008053936559E6D36843F48013D3606CE7D8
:104350000121201DFFF768FC00283FF466AF0646E8
:1043600063E7D36843F48013D36082E70121201D03
:10437000FFF75AFC00283FF47CAF064679E7D36884
:1043800043F48013D36098E70121201DFFF74CFC14
:10439000002892D0064690E70221201DFFF744FC3A
:1043A0000028ADD00646ABE7485C0008001002408C
:1043B00010B50446BC4B184222D0B4F5003F25D0BE
:1043C000BA4BDB6803F00303022B66D0032B6BD0E0
:1043D000012B4AD00021B4F5007F00F07A8200F270
:1043E0008B80202C00F0D6816BD8022C00F07781D6
:1043F000042C00F0A581012C00F03A81002010BDB2
:1044000040F28941AA4801F0CEFAD6E7A74BD3F88B
:10441000903003F44073B3F5007F12D0B3F5407FC2
:104420001AD0B3F5807F01D0002010BD9F4BD3F888
:10443000903013F0020F02D04FF4004010BD002066
:1044400010BD9A4BD3F8943013F0020F02D04FF402
:10445000FA4010BD002010BD944B1B6813F4003FC0
:1044600001D0944810BD002010BD904B1B6813F084
:10447000020F20D08D4B1B6813F0080F07D08B4B19
:104480001B68C3F303138C4A52F82310A3E7874B2E
:10449000D3F89430C3F30323F5E7844B1B6813F47C
:1044A000806F0AD0854996E7804B1B6813F4003F64
:1044B00005D083498FE700218DE700218BE700219C
:1044C00089E7802C00F0CB81B4F5807F00F0E48197
:1044D000402C93D1754BD3F8883003F44053B3F597
:1044E000805F00F0B081B3F5005F00F0AF81002B7A
:1044F00000F0A681002010BDB4F5804F00F0778158
:1045000026D8B4F5006F39D0B4F5005F3BD0B4F5D0
:10451000806F7FF473AF654BD3F8883003F440139A
:10452000B3F5801F00F00D8240F20682B3F5001F44
:1045300000F01282B3F5401F40F044825B4BD3F889
:10454000903013F0020F00F010824FF4004010BDC5
:10455000B4F5802F17D0B4F5002F14D0B4F5004F68
:104560007FF44CAF514BD3F8883013F0804300F008
:10457000FE81002B40F0FE81002010BD4FF4006052
:10458000FFF7E0FA10BD494BD3F8880000F0406017
:10459000B0F1806F4BD019D9B0F1006F27D0B0F1D6
:1045A000406F40F0F581414B1B6813F0020F00F0A3
:1045B000F1813E4B1B6813F0080F12D03B4B1B6878
:1045C000C3F303133C4A52F8230010BD002840F007
:1045D000DF81364BD3F8983013F0020F47D03948BB
:1045E00010BD324BD3F89430C3F30323EAE72F4BCB
:1045F0001B6813F0007F00F0CF812C4BDB6813F4B5
:10460000801F00F0CB81294AD068C0F3062000FB50
:1046100001F0D368C3F302130133B0FBF3F0D368A6
:10462000C3F3415301335B00B0FBF3F010BD1F4BEC
:104630001B6813F0006F00F0B3811C4B1B6913F46F
:10464000801F00F0AF81194A1069C0F3062000FBFB
:1046500001F0D368C3F302130133B0FBF3F0136925
:10466000C3F3415301335B00B0FBF3F010BD10BD49
:104670000E4BD3F8883003F00303032B00F2948130
:10468000DFE803F002050822FFF74AFA10BDFEF743
:10469000E1FC10BD054B1B6813F4806F01D0074887
:1046A00010BD002010BD00BFE7EF0E00001002405B
:1046B000485C000890D00300785D00080024F400F6
:1046C00000127A00006CDC02AE4BD3F8903013F08D
:1046D000020F02D04FF4004010BD002010BDA94BC6
:1046E000D3F8883003F00C030C2B00F25F81DFE875
:1046F00013F00D005D015D015D0110005D015D01C4
:104700005D0113005D015D015D011C00FFF7F6F91D
:1047100010BDFEF79FFC10BD9A4B1B6813F4806F11
:1047200001D0994810BD002010BD964BD3F89030B1
:1047300013F0020F02D04FF4004010BD002010BD56
:10474000904BD3F8883003F03003102B14D00DD9E0
:10475000202B14D0302B40F02B818A4BD3F8903093
:1047600013F0020F14D04FF4004010BD002B40F0A6
:104770001F81FFF7C3F910BDFEF76CFC10BD814B24
:104780001B6813F4806F01D07F4810BD002010BD5E
:10479000002010BD7B4BD3F8883003F44063B3F5A1
:1047A000806F16D00FD9B3F5006F15D0B3F5406FF9
:1047B00040F00081734BD3F8903013F0020F14D007
:1047C0004FF4004010BD002B40F0F480FFF796F945
:1047D00010BDFEF73FFC10BD6A4B1B6813F4806FE1
:1047E00001D0694810BD002010BD002010BD654BF0
:1047F000D3F8883003F04053B3F1805F06D0B3F1B3
:10480000405F40F0D980FEF725FC10BD5D4B1B6971
:1048100013F0807F00F0D2805A4A1069C0F306205E
:1048200000FB01F0D368C3F302130133B0FBF3F0D4
:104830001369C3F3416301335B00B0FBF3F010BDB8
:10484000FFF75CF910BDFEF705FC10BD4D4B1B6872
:1048500013F4806F01D04C4810BD002010BD494BAF
:10486000D3F8883003F44043B3F5804F08D0B3F554
:10487000004F08D00BB1002010BDFFF73FF910BD6D
:10488000FEF7E8FB10BD3F4B1B6813F4806F01D0AF
:104890003D4810BD002010BD3A4BD3F8883003F4DA
:1048A0004033B3F5803F08D0B3F5003F08D00BB1DB
:1048B000002010BDFFF722F910BDFEF7CBFB10BDA5
:1048C000304B1B6813F4806F01D02F4810BD0020BF
:1048D00010BD2C4BD3F8883003F44023B3F5802F60
:1048E00014D00ED9B3F5002F1BD0B3F5402F67D1EC
:1048F000244BD3F8903013F0020F1BD04FF400403C
:1049000010BD002B5CD1FFF7F9F810BD1D4BD3F89B
:10491000943013F0020F02D04FF4FA4010BD002083
:1049200010BD184B1B6813F4806F01D0164810BDE2
:10493000002010BD002010BD002B43D1FFF7DEF892
:1049400010BD104BD3F8943013F0020F02D04FF487
:10495000FA4010BD002010BD0A4B1B6813F4806F95
:1049600001D0094810BD002010BD002010BDFFF788
:10497000C5F810BD034B1B6813F4806F06D00248C6
:1049800010BD00BF001002400024F400002010BD44
:10499000002010BD002010BD002010BD002010BD63
:1049A000002010BD002010BD002010BD002010BD53
:1049B000002010BD002010BD002010BD002010BD43
:1049C000002010BD002010BD2DE9F04782B0054643
:1049D0000C46B0F1904F16D0A44B984213D003F57B
:1049E000806398420FD003F5806398420BD003F5A3
:1049F0008063984207D003F54063984203D0B32107
:104A00009B4800F0D0FF23689AB212B11B0C1B0424
:104A10001BB1B421964800F0C6FF6368012B24D96E
:104A2000112B22D0022B20D0122B1ED0914A934260
:104A30001BD002F58012934217D002F580129342E8
:104A400013D0A2F5F81293420FD002F580129342D0
:104A50000BD002F58012934207D0032B05D00B2B0D
:104A600003D0B521824800F09EFFA368022B01D835
:104A70000026B9E0B6217E4800F095FFF8E7B5F1D1
:104A8000904F16D0794B9D4213D003F580639D4221
:104A90000FD003F580639D420BD003F580639D42E8
:104AA00007D003F540639D4203D0C521704800F054
:104AB0007AFF23690F2B11D8F208083255F82230FB
:104AC00006F0070189000F20884023EA00032069CF
:104AD00000FA01F10B4345F8223097E0C621644803
:104AE00000F061FFE8E7E368032B00F2AD80AB68FC
:104AF00008EA0303E26802FA0AF21343AB606B6848
:104B000023EA09096368C3F30013B34049EA0303C6
:104B10006B60EB6808EA0308A36803FA0AF348EA43
:104B20000303EB60636813F0805F5CD0524B1A6E36
:104B300042F001021A661B6E03F001030193019B10
:104B4000B208911C4D4B53F8213006F00301890047
:104B50000F20884023EA0003B5F1904F7BD04348F3
:104B600085427AD000F58060854278D000F580607B
:104B7000854276D000F5806085426AD0072000FA31
:104B800001F10B4302323D4941F822303C4B1A6897
:104B9000FB4302EA0301606810F4803F01D047EA5A
:104BA0000201374A1160526803EA0201606810F49A
:104BB000003F01D047EA0201314A5160926803EA9E
:104BC0000201606810F4801F01D047EA02012C4AFC
:104BD0009160D2681340616811F4001F01D047EA68
:104BE0000203274AD3600136276837FA06F33AD022
:104BF0004FF0010909FA06F917EA0907F3D06368CB
:104C0000022B3FF43CAF122B3FF439AF2B684FEA35
:104C1000460A4FF0030808FA0AF86FEA080803EAA0
:104C20000803626802F0030202FA0AF213432B60DF
:104C300063685A1E012A7FF656AF112B3FF453AF1B
:104C4000122B7FF466AF4EE7DA21094800F0ABFE85
:104C50004DE7042093E7002091E701208FE7022031
:104C60008DE703208BE702B0BDE8F0870004004821
:104C7000805C00080000111000100240000001409C
:104C80000004014070B5054614460E4649B1012C9A
:104C900004D940F2B311074800F085FE3CB9AE627A
:104CA00070BD4FF4D971034800F07DFEEFE7AE61AF
:104CB00070BD00BF805C0008002800F0EE8010B5D9
:104CC00004460368764A93422BD01432934228D08C
:104CD0001432934225D01432934222D0143293429C
:104CE0001FD0143293421CD01432934219D002F5D3
:104CF0006272934215D01432934212D0143293420E
:104D00000FD0143293420CD01432934209D0143293
:104D1000934206D01432934203D0A421614800F09C
:104D200042FEA36843B1102B06D0B3F5804F03D0E9
:104D3000A5215C4800F037FEE368402B01D0002B32
:104D40007ED12369802B01D0002B7ED163694BB1CA
:104D5000B3F5807F06D0B3F5007F03D0A82151487A
:104D600000F021FEA3694BB1B3F5806F06D0B3F517
:104D7000006F03D0A9214B4800F015FEE3692BB169
:104D8000202B03D0AA21474800F00DFE236A63B10F
:104D9000B3F5805F09D0B3F5005F06D0B3F5405F8F
:104DA00003D0AB213F4800F0FEFD6368072B51D8CC
:104DB00022683D4B9A4252D83C4B13443C4AA2FBDA
:104DC00003231B099B0063643A4B2364022384F88A
:104DD000253021680A6822F4FF4222F07002A3689D
:104DE000E06803432069034360690343A069034308
:104DF000E0690343206A034313430B60A368B3F5E0
:104E0000804F15D0226C2B4B9A4233D02A4B1A6814
:104E1000616C01F01C000F21814022EA01021A603E
:104E20001A686168606C00F01C0081400A431A60D7
:104E30000020E063012384F8253084F8240010BDAD
:104E4000A621184800F0AFFD7BE7A721154800F028
:104E5000AAFD7BE7AD21134800F0A5FDA8E7174B9D
:104E60001344134AA2FB03231B099B006364144BE6
:104E70002364ABE7A8331A68616C01F01C000F21B2
:104E8000814022EA01021A601A686168606C00F0D1
:104E90001C0081400A431A60CAE70120704700BF26
:104EA00008000240B85C000807040240F8FFFDBF9C
:104EB000CDCCCCCC00000240A8040240F8FBFDBFE2
:104EC0000004024038B5036C196804682568436C17
:104ED00003F01C0304229A40114216D015F0040F6F
:104EE00013D0236813F0200F03D1236823F00403A9
:104EF0002360016C436C03F01C02042393404B605D
:104F0000036B002B3ED0984738BD02229A401142D5
:104F10001BD015F0020F18D0236813F0200F06D114
:104F2000236823F00A032360012380F82530016CF5
:104F3000436C03F01C02022393404B60002380F873
:104F40002430C36AF3B1984738BD082202FA03F34C
:104F5000194217D015F0080F14D0236823F00E0360
:104F60002360016C436C03F01C03012202FA03F37B
:104F70004B60C26380F82520002380F82430436B07
:104F800003B1984738BD0000024B186800F4C060B8
:104F9000704700BF0070004010B50446B0F5007FB8
:104FA00006D0B0F5806F03D0A821224800F0FBFCAA
:104FB000B4F5007F0FD0204B1B6803F4C063B3F53A
:104FC000806F34D01C4A136823F4C06343F48063B9
:104FD0001360002010BD184B1B6803F4C063B3F5C9
:104FE000007F20D0144A136823F4C06343F4007395
:104FF0001360124B1A68322303FB02F3104AA2FB20
:1050000003239B0C013300E0013B0B4A526912F46D
:10501000806F01D0002BF7D1074B5B6913F4806FD1
:1050200003D0032010BD002010BD002010BD0020C3
:1050300010BD00BFF05C00080070004008000020B8
:1050400083DE1B4310B50446C31E042B0FD80A4A47
:10505000D36823F4E0631B041B0C240204F4E06413
:10506000234343F0BF6343F40033D36010BDA72153
:10507000024800F098FCEAE700ED00E0285D000837
:1050800070B505460C4616460F2A24D80F2C27D893
:105090001A4BDB68C3F30223C3F10702042A28BFBB
:1050A0000422191D062920D9033B012101FA02F22D
:1050B000013A14409C4001FA03F3013B33401C4386
:1050C000002D14DB2401E4B205F1604505F56145CE
:1050D00085F8004370BDBF21094800F064FCD5E7A6
:1050E000C021074800F05FFCD2E70023DDE705F0B0
:1050F0000F052401E4B2034B5C5570BD00ED00E0E8
:10510000285D000814ED00E00138B0F1807F0AD27C
:10511000064B5860F021064A82F823100020986060
:1051200007221A6070470120704700BF10E000E0BE
:1051300000ED00E07047FEE7FEE7FEE7FEE77047A0
:105140007047704708B5FDF72BFF08BD08B502484A
:10515000FFF7B8FE08BD00BF1802002082B00A4B5E
:105160001A6E42F001021A661A6E02F001020092F3
:10517000009A9A6D42F080529A659B6D03F08053BD
:105180000193019B02B07047001002400F49D1F813
:10519000883043F47003C1F888300D4B1A6842F030
:1051A00001021A60002098601A6822F0A85222F4C6
:1051B00010221A604FF48052DA601A6822F48022BA
:1051C0001A6098614FF000638B60704700ED00E05B
:1051D0000010024030B58BB000240594069407946B
:1051E000089409942F4BDA6C42F00402DA64DA6C0A
:1051F00002F004020192019ADA6C42F08002DA6451
:10520000DA6C02F080020292029ADA6C42F0010239
:10521000DA64DA6C02F001020392039ADA6C42F06B
:105220000202DA64DB6C03F002030493049B22465F
:105230004FF498714FF09040FFF724FD4FF4404336
:10524000059303250695079405A91748FFF7BCFBAE
:1052500041F6030305930695079405A94FF0904086
:10526000FFF7B2FB4FF4987305930123069307945D
:10527000089405A94FF09040FFF7A6FB4FF4457343
:1052800005930695079405A90848FFF79DFB082399
:105290000593074B0693079405A90648FFF794FB6F
:1052A0000BB030BD00100240000800480004004868
:1052B00000001110001C004800B587B000230093C7
:1052C000019302930393049305931948194A0260CA
:1052D00043608360C36003610422426103764376C6
:1052E0000122C26180F820308362C36280F83030CE
:1052F000436380F83830FBF793F990B90E4B009375
:1053000006230193002302937F2203920422049236
:10531000059369460648FBF7DDFB28B907B05DF841
:1053200004FB00F03FFBE9E700F03CFBF6E700BFC1
:105330003400002000000450000084CB02680A4BB7
:105340009A4200D0704782B003F17043A3F5F8335E
:10535000DA6C42F40052DA64DB6C03F4005301931C
:10536000019B02B0EEE700BF0000045008B51548ED
:10537000154B0360A3F13E53A3F57D23A3F24463D1
:105380004360002383600122C26003614361836143
:10539000C3610362FBF72AFF50B900210948FBF7FC
:1053A000DDFF40B900210748FCF724F830B908BDFB
:1053B00000F0F8FAF1E700F0F5FAF3E700F0F2FA9E
:1053C000F5E700BF980000200054004010B588B0F9
:1053D0000023039304930593069307930268134BEA
:1053E0009A4201D008B010BD114CE36C43F00203A7
:1053F000E364E36C03F002030193019BC023039376
:105400001223049301230593032306930423079394
:1054100003A90848FFF7D8FAA36D43F40013A36566
:10542000A36D03F400130293029BDBE700540040DA
:10543000001002400004004808B50A480A4B036007
:10544000FF234360012282600023C3600261436145
:105450008361C3610362FCF741F800B908BD00F045
:10546000A1FAFBE7E4000020001000A070B588B0AE
:1054700000230393049305930693079302681F4B3D
:105480009A4201D008B070BD03F1204303F5003308
:105490001A6D42F480721A651A6D02F480720092DD
:1054A000009ADA6C42F00102DA64DA6C02F001026E
:1054B0000192019ADA6C42F00202DA64DB6C03F0CA
:1054C00002030293029BC023039302260496032542
:1054D00006950A24079403A94FF09040FFF774FA49
:1054E00040F603430393049600230593069507941F
:1054F00003A90348FFF768FAC4E700BF001000A043
:105500000004004808B50C480C4B036000214160C2
:105510008160016141618161094BC361C160416288
:105520008162C16202230A46FCF796FB00B908BDFE
:1055300000F038FAFBE700BF3001002004540140BE
:1055400000EE02000268134B9A4200D0704700B58B
:1055500087B0114B1B684BB9104A116E41F4001112
:105560001166126E02F400120092009A01330A4A88
:1055700013604FF4704301930223029300230393BB
:1055800004930D23059301A90548FFF71DFA07B001
:105590005DF804FB045401402C0000200010024080
:1055A0000004004808B51048104B03604FF48273A4
:1055B0004360002383604FF44072C2600361436123
:1055C0004FF400728261C361036243628362072207
:1055D000C262036308234363FCF772FB00B908BD92
:1055E00000F0E0F9FBE700BFB4010020003001400B
:1055F00010B588B000230393049305930693079393
:1056000002681F4B9A4201D008B010BD044603F552
:1056100060431A6E42F480521A661A6E02F4805287
:105620000192019ADA6C42F00202DA64DB6C03F058
:1056300002030293029B2823039302230493032370
:1056400006930523079303A90E48FFF7BDF90E48FB
:105650000E4B036001234360102383600023C3606B
:105660008022026143618361C3610362FFF724FB0F
:1056700018B9054B63659C62C6E700F093F9F8E73B
:1056800000300140000400481802002030000240B1
:105690000368B3F1804F00D0704782B003F5043344
:1056A0009A6D42F001029A659B6D03F0010301932C
:1056B000019B02B0F0E700B587B00023019302938D
:1056C0000393049305930368B3F1804F02D007B0AE
:1056D0005DF804FB03F50433DA6C42F00102DA648E
:1056E000DB6C03F001030093009B4FF40043019334
:1056F000022302930123059301A94FF09040FFF785
:1057000063F9E4E700B58BB000230793089309938E
:105710000093019302930393049305930693174810
:105720004FF08042026043608360C3600361836125
:10573000FCF76CFDC0B900230793099307A90F4834
:10574000FCF760FF98B96023009300220192029257
:10575000049269460948FCF71BFE58B90748FFF751
:10576000AAFF0BB05DF804FB00F01CF9E3E700F0C2
:1057700019F9E8E700F016F9F0E700BF6002002031
:1057800008B50B480B4B03604FF4E1334360002333
:105790008360C36003610C2242618361C361036261
:1057A0004362FDF75DFB00B908BD00F0FBF8FBE7C5
:1057B000A00200200038014008B50B480B4B0360E5
:1057C0004FF4E133436000238360C36003610C2224
:1057D00042618361C36103624362FDF741FB00B92B
:1057E00008BD00F0DFF8FBE7200300200044004084
:1057F00000B58BB000230593069307930893099394
:105800000368264A934205D0254A934224D00BB020
:105810005DF804FB234B1A6E42F480421A661A6E3E
:1058200002F480420192019ADA6C42F00102DA64D9
:10583000DB6C03F001030293029B4FF4C0630593FA
:1058400002230693032308930723099305A94FF026
:105850009040FFF7B9F8DAE7124B9A6D42F4003244
:105860009A659A6D02F400320392039ADA6C42F060
:105870000102DA64DB6C03F001030493049B0C2344
:10588000059302230693032308930723099305A98D
:105890004FF09040FFF798F8B9E700BF003801409B
:1058A000004400400010024082B0064B9A6C42F067
:1058B00001029A649B6C03F001030193019B02B007
:1058C000704700BF001002402DE9F043AFB0442202
:1058D00000211DA8FAF7D2FC0024189419941A94F8
:1058E0001B941C94602221466846FAF7C7FC0127E6
:1058F0001D974FF480331E93022527950326289683
:1059000029974FF01009CDF8A8904FF00708CDF86F
:10591000AC802C952D951DA8FDF7F6FB0F23189351
:1059200019961A941B941C94314618A8FDF7D8FFB9
:1059300044F643030093089409940C9411944FF097
:105940008053159301960297CDF80C90CDF81080F6
:1059500005950695054B07936846FEF779FA4FF4CF
:105960000070FFF719FB2FB0BDE8F08300000101C4
:1059700008B5FDF705FBFFF7A7FFFFF72BFCFFF7C7
:1059800093FFFFF799FCFFF7F1FCFFF755FDFFF7D9
:10599000B9FDFFF707FEFFF7B5FEFFF7F1FEFFF7D2
:1059A0000BFFFEE770477047DFF834D0002103E0BB
:1059B0000C4B5B58435004310B480C4B42189A4235
:1059C000F6D30B4A02E0002342F8043B094B9A420B
:1059D000F9D3FFF7DBFBFAF72DFCFFF7C9FFFEE772
:1059E00000000120C05D0008000000201000002021
:1059F00010000020A0030020FEE70000F8B500BF63
:105A0000F8BC08BC9E467047F8B500BFF8BC08BC9F
:085A10009E46704700000000F3
:105A1800447269766572732F53544D33324C34781F
:105A2800785F48414C5F4472697665722F537263A0
:105A38002F73746D33326C3478785F68616C5F6192
:105A480064632E6300000000447269766572732FE8
:105A580053544D33324C3478785F48414C5F44722C
:105A6800697665722F5372632F73746D33326C3499
:105A780078785F68616C5F6932632E6300000000AC
:105A8800447269766572732F53544D33324C3478AF
:105A9800785F48414C5F4472697665722F53726330
:105AA8002F73746D33326C3478785F68616C5F691A
:105AB80032635F65782E6300447269766572732F6E
:105AC80053544D33324C3478785F48414C5F4472BC
