:020000040800F2
:1000000000000120FD3600089D3300089F330008E2
:10001000A1330008A3330008A53300080000000046
:10002000000000000000000000000000A7330008EE
:10003000A933000800000000AB330008AD3300080E
:100040004D3700084D3700084D3700084D37000880
:100050004D3700084D3700084D3700084D37000870
:100060004D3700084D3700084D3700084D37000860
:100070004D370008B53300084D3700084D370008EC
:100080004D3700084D3700084D3700084D37000840
:100090004D3700084D3700084D3700084D37000830
:1000A0004D3700084D3700084D3700084D37000820
:1000B0004D37000800000000000000004D37000828
:1000C0004D3700084D3700084D3700084D37000800
:1000D0004D3700084D3700084D3700084D370008F0
:1000E0004D3700084D3700080000000000000000F8
:1000F0000000000000000000000000000000000000
:10010000000000004D370008000000004D370008D7
:1001100000000000000000004D3700084D370008C7
:100120004D3700084D3700084D3700084D3700089F
:100130004D37000800000000000000000000000033
:100140004D3700084D3700084D3700084D3700087F
:100150004D3700084D3700084D3700084D3700086F
:100160004D3700084D3700084D37000800000000EB
:100170004D3700084D3700084D37000800000000DB
:100180004D3700084D3700084D37000800000000CB
:10019000044B05481B1A062B02D9044B03B1184720
:1001A000704700BF730000207000002000000000B6
:1001B00005490648091A891001EBD171491002D08E
:1001C000034B03B1184770477000002070000020F7
:1001D0000000000010B5064C237843B9FFF7D8FFA4
:1001E000044B13B10448AFF300800123237010BD0A
:1001F00070000020000000005037000808B5084BD0
:100200001BB108490848AFF300800848036813B9D8
:10021000BDE80840CCE7064B002BF9D09847F7E73C
:10022000000000007400002050370008700000201B
:100230000000000070B50D4E0D4D761BB61006D0B7
:100240000024013455F8043B9847A642F9D1094EE1
:10025000094D761B03F07CFAB61006D00024013459
:1002600055F8043B9847A642F9D170BD8039000883
:10027000803900088439000880390008F0B4860706
:1002800043D0541E002A3ED0CAB2034602E014F105
:10029000FF3438D303F8012B9D07F8D1032C2BD959
:1002A000CDB245EA05250F2C45EA054516D9A4F13E
:1002B00010073F0903F1200606EB071603F11002B1
:1002C00042E9045542E902551032B242F8D104F035
:1002D0000F040137032C03EB07130DD91E462246EA
:1002E000043A032A46F8045BFAD8221F22F00302DC
:1002F0000432134404F003042CB1C9B21C4403F8C3
:10030000011B9C42FBD1F0BC704714460346C5E775
:1003100083692DE9F04180460E46F3B184682F4B86
:100320009C4228D02E4B9C4231D02E4B9C4208BF81
:10033000D8F80C40A3891B0722D5236903B3013EDB
:10034000A36816F8015F013BA3609DB3002B21DB7E
:1003500023685A1C22601D70F2E700F0F3FAD8F807
:100360001830D8F80840002BD9D1404600F0EAFAFE
:100370001A4B9C42D6D1D8F80440A3891B07DCD481
:100380002146404600F098F80028D8D00EE0D8F872
:100390000840CFE7A769BB4222462946404601DB19
:1003A0000A2DD5D100F028F80130C9D14FF0FF3027
:1003B000BDE8F081002B07DB23680A22591C21606D
:1003C0001A701046BDE8F081224640460A2100F02E
:1003D00013F80130EAD00A20BDE8F081AC370008FC
:1003E0008C3700086C370008024B01461868FFF78D
:1003F0008FBF00BF00000020F8B50D46144606462A
:1004000008B1836943B3254B9C422AD0244B9C42BC
:1004100029D0244B9C4208BFF468A389A269A2603A
:100420001A0722D5236903B322686169D31AEDB292
:1004300099422F4629DD0133A168501C0139A16082
:100440002060157062699A4216D0A389DB0701D536
:100450000A2D11D03846F8BD00F074FA0F4B9C42BB
:10046000D4D17468D9E7B468D7E72146304600F0A4
:1004700023F838B92369D7E72146304600F038F928
:100480000028E7D04FF0FF37E4E72146304600F080
:100490002FF90028F6D122680123CDE7AC370008F8
:1004A0008C3700086C370008024B0A460146186872
:1004B000FFF7A2BF000000203B4B70B51D68064649
:1004C0000C460DB1AB69DBB1384B9C421ED0384BAA
:1004D0009C424AD0374B9C4208BFEC68B4F90C20D0
:1004E00093B2190718D5206908B313F001022CD074
:1004F000636900225B42A361A26060B3002070BD0B
:10050000284600F01FFA294B9C42E0D16C68B4F9F0
:100510000C2093B21907E6D4DD063CD5580726D443
:10052000206942F00803A3819BB20028DDD103F4C7
:100530002072B2F5007FD8D03046214600F0A0FAF4
:10054000A389206913F00102D2D1990758BF6269CB
:10055000A2600028D2D1B4F90C301A06CFD543F0EE
:100560004003A3814FF0FF3070BDAC68B6E7616B0C
:1005700051B104F14403994204D0304600F0CAFA64
:10058000B4F90C200023636300232069636022F028
:1005900024022060C5E742F04002092333604FF097
:1005A000FF30A28170BD00BF00000020AC37000802
:1005B0008C3700086C3700088B891A072DE9F04149
:1005C0000C4680463CD44A68002A54DDE56A002D7A
:1005D0004ED00022D8F80060216AC8F8002013F439
:1005E00080527CD101234046A847431C47D0A389B1
:1005F000E56A216A5F0705D56268636B801A0BB1F3
:10060000236CC01A024600234046A847451C42D02E
:10061000A38922692260DB044FF00002626000D5EA
:100620006065616BC8F8006011B304F1440399423E
:1006300002D0404600F06EFA00206063BDE8F08111
:100640000E69AEB10D680E609A070CBF4B690023AE
:10065000AD1B8B600AE02B463246A76A216A4046F2
:10066000B8470028A5EB0005064428DD002DF2DC84
:100670000020BDE8F0810A6C002AA7DCF8E7D8F872
:100680000030002BB3D01D2B01D0162B29D1C8F878
:1006900000600020EDE7D8F800201D2A17D8134B82
:1006A000B4F90C10D340DB4313F0010311D12569D9
:1006B000C904C4E90053B4D5002AB2D1B0E7A38974
:1006C00043F04003A3814FF0FF30BDE8F081B4F95F
:1006D0000C1041F04001A1814FF0FF30C9E7606D7F
:1006E00088E7A38943F04003A381C2E701004020CB
:1006F0000B6923B310B5044682B008B18369BBB15E
:10070000104B994212D0104B994216D00F4B994280
:1007100008BFE168B1F90C3013B9002002B010BD78
:10072000204602B0BDE81040FFF746BF6168F1E720
:10073000019100F007F90199E2E7A168EAE70020DA
:10074000704700BFAC3700088C3700086C370008D2
:1007500020B1054B01461868FFF7CABF034B044997
:10076000186800F035B900BF0000002068370008A5
:10077000F106000800207047014900F029B900BFC8
:10078000F10600080020704770B54A1E682505FB79
:1007900002F50E4605F1740100F010FA044640B16E
:1007A00000210C30666005F168022160A060FFF74F
:1007B00065FD204670BD00BF1E4B70B51D68AB695E
:1007C000064643B34835D5E90134013B05D51EE063
:1007D000013B5A1C04F1680419D0B4F90C20002A1A
:1007E000F6D10025144B6566C4E90055A560C4E93F
:1007F0000455A5612946E360082204F15C00FFF777
:100800003DFDC4E90D55C4E91255204670BD286868
:1008100028B10546D7E7284600F010F8D2E70421B2
:100820003046FFF7B1FF28600028F2D10C230446C0
:100830003360EAE7683700080100FFFF2DE9F84F51
:10084000334B34491A68816290424FF00003C0E98B
:100850001233036504BF012383610546FFF7ACFF34
:1008600068602846FFF7A8FFA8602846FFF7A4FFA6
:100870006E68E86000240423F3607466C6E90044EF
:10088000B460C6E90444B461214606F15C00082264
:10089000FFF7F4FCDFF888B0AF68DFF888A0DFF876
:1008A0008890DFF888801C4BC6F83080C6E9086B5A
:1008B000C6E90AA92146FB6008227C66C7E9004414
:1008C000BC60C7E90444BC6107F15C00FFF7D6FCDB
:1008D000EE68124BC7F83080C7E9087BC7E90AA960
:1008E0002146F3607466C6E90044B460C6E9044476
:1008F000B46106F15C000822FFF7C0FC0123C6E9E1
:10090000086BC6E90AA9C6F83080AB61BDE8F88F6C
:10091000683700087907000809000100120002008A
:10092000A90C0008D10C00080D0D00082D0D0008C1
:10093000024B0349186800F04BB800BF6837000845
:10094000F1060008836903B978E77047704700BF74
:10095000704700BF704700BF704700BF024B03499C
:10096000186800F00FB800BF0000002075070008ED
:10097000024B0349186800F005B800BF00000020D2
:10098000850700082DE9F04110F148071BD0884683
:100990000026D7E90154013D0FD4A389012B05F1AD
:1009A000FF35204605D9B4F90E30013301D0C047D8
:1009B00006436B1C04F16804EFD13F68002FE8D1B7
:1009C0003046BDE8F0813E463046BDE8F08100BFCC
:1009D0002DE9F84310F148071FD0884606464FF02E
:1009E0000009D7E90154013D11D4A389012B05F178
:1009F000FF352146304606D9B4F90E30013302D016
:100A0000C04749EA00096B1C04F16804EDD13F6856
:100A1000002FE6D14846BDE8F883B9464846BDE810
:100A2000F88300BF70B50C46B1F90E10002996B0DE
:100A300016461D460FDAA38900221B062A6005D43C
:100A40004FF480630020336016B070BD4023002057
:100A5000336016B070BD6A4600F094F90028EADBF6
:100A6000019B03F47043A3F50053B3FA83F35B09CE
:100A70004FF4806200202B60326016B070BD00BF62
:100A80008A8992070B4606D501F1470201211A60B7
:100A9000C3E90421704770B582B001AB6A460C46C9
:100AA0000546FFF7BFFF00990646284600F086F886
:100AB000B4F90C30D8B11649A962019A00992060A6
:100AC00043F08003A381C4E904011AB93343A3812D
:100AD00002B070BD2846B4F90E1000F067F9A0B15D
:100AE000A38923F0030343F001031BB2EEE79A0549
:100AF000EED423F0030304F1470243F00203012183
:100B0000A3812260C4E90421E2E7B4F90C30DDE7F7
:100B10007907000879B338B551F8043C0C1F002B55
:100B2000B8BFE418054600F069F9234B1A682AB1EA
:100B3000A2420DD921686018824230D062602846F6
:100B40001C60BDE8384000F05BB9A34203D81A46E8
:100B50005368002BF9D111685018A04213D00BD85C
:100B600021686018834220D0636054602846BDE845
:100B7000384000F045B970470C232B602846BDE88B
:100B8000384000F03DB9206801445018834211609C
:100B9000ECD1D3E90003014453601160E6E7D2E9E8
:100BA0000002014462602160C9E7D3E90003014407
:100BB000636021605460D9E78C000020F8B5CD1C3B
:100BC00025F0030508350C2D38BF0C25002D0646F1
:100BD0003ADBA94238D82A4F00F010F93A6852B1EE
:100BE00013685B1B04D433E023685B1B25D52246C6
:100BF0005468002CF8D1796800293BD0294630464A
:100C000000F040F8431C2AD0C41C24F00304A04286
:100C100005D0211A304600F035F801301FD025608C
:100C2000304600F0EDF804F10B0020F00700231D22
:100C3000C31A01D05A42E250F8BD0B2B0BD8A24286
:100C400015D063685360EBE70C2333600020F8BDD8
:100C50000B2B0BD9144623601C442560E0E70C23C2
:100C60003046336000F0CCF80020F8BD54683C609A
:100C70001446D5E7304600F005F87860BEE700BFBF
:100C80008C00002038B5074C002305460846236039
:100C900000F0F6F8431C00D038BD2368002BFBD0D1
:100CA0002B6038BD4802002010B50C46B1F90E107B
:100CB00000F0A8F8002803DB636D0344636510BDF2
:100CC000A38923F48053A38110BD00BF0020704787
:100CD0002DE9F0411646B1F90C201F46D3050C460C
:100CE0000546B1F90E1007D50022022300F070F876
:100CF000B4F90C20B4F90E1022F48052A2813B46C4
:100D000032462846BDE8F04100F014B810B50C4654
:100D1000B1F90E1000F05CF8A389421C0EBF23F459
:100D2000805343F480536065A38110BDB1F90E1068
:100D300000F016B870B50D46084C114606461A4626
:100D400028460023236002F0CDFC431C00D070BD78
:100D50002368002BFBD0336070BD00BF4802002029
:100D600038B5074C002305460846236000F060F8BC
:100D7000431C00D038BD2368002BFBD02B6038BD4E
:100D80004802002038B50B46074C05461146184668
:100D90000023236000F054F8431C00D038BD2368C2
:100DA000002BFBD02B6038BD4802002038B5074C23
:100DB000002305460846236000F04AF8431C00D093
:100DC00038BD2368002BFBD02B6038BD48020020C3
:100DD00070B50D46084C114606461A4628460023B3
:100DE000236000F03DF8431C00D070BD2368002B49
:100DF000FBD0336070BD00BF48020020704700BFC9
:100E0000704700BF70B50D46084C114606461A469D
:100E100028460023236000F02BF8431C00D070BD4F
:100E20002368002BFBD0336070BD00BF4802002058
:100E3000024B58221A604FF0FF30704748020020E2
:100E4000024B58221A604FF0FF30704748020020D2
:100E5000024B58221A600020704700BF4802002051
:100E6000024B58221A604FF0FF30704748020020B2
:100E7000024B58221A604FF0FF30704748020020A2
:100E8000044A05491368002B08BF0B46184410603C
:100E900018467047940000205002002053B94AB908
:100EA000002908BF00281CBF4FF0FF314FF0FF3072
:100EB00000F07AB9ADF1080C6DE904CE00F006F847
:100EC000DDF804E0DDE9022304B070472DE9F047C6
:100ED0008C460D460446089E002B51D18A42174687
:100EE0006DD9B2FA82FEBEF1000F0BD0CEF1200C0C
:100EF00001FA0EF520FA0CFC02FA0EF74CEA050C8A
:100F000000FA0EF44FEA174A250CBCFBFAF81FFA58
:100F100087F90AFB18CC45EA0C4508FB09F3AB42FC
:100F20000AD9ED1908F1FF3280F02381AB4240F27B
:100F30002081A8F102083D44ED1AA4B2B5FBFAF0F5
:100F40000AFB105544EA054400FB09F9A14509D9FB
:100F5000E41900F1FF3380F00A81A14540F20781D6
:100F600002383C44A4EB090440EA08400021002E6A
:100F700061D024FA0EF4002334607360BDE8F0877A
:100F80008B4207D9002E54D0002186E82100084664
:100F9000BDE8F087B3FA83F1002940F08E80AB42C0
:100FA00002D3824200F2FA80841A65EB0305012025
:100FB000AC46002E3FD086E81010BDE8F08712B98D
:100FC0000127B7FBF2F7B7FA87FEBEF1000F34D165
:100FD000EB1B3A0C1FFA87FC0121B3FBF2F8250C3E
:100FE00002FB183345EA03450CFB08F3AB4207D973
:100FF000ED1908F1FF3002D2AB4200F2D1808046F9
:10100000ED1AA3B2B5FBF2F002FB105543EA05441A
:101010000CFB00FCA44507D9E41900F1FF3302D210
:10102000A44500F2B8801846A4EB0C0440EA08403E
:101030009DE731463046BDE8F087CEF1200405FA41
:101040000EF307FA0EF720FA04F83A0C25FA04F426
:1010500048EA0308B4FBF2F14FEA184502FB1144D9
:101060001FFA87FC45EA044501FB0CF3AB4200FA8A
:101070000EF409D9ED1901F1FF3080F08A80AB42FE
:1010800040F2878002393D44EB1A1FFA88F5B3FB22
:10109000F2F002FB103345EA034500FB0CF3AB42D0
:1010A00007D9ED1900F1FF386FD2AB426DD9023884
:1010B0003D44EB1A40EA01418FE7C1F1200722FAD3
:1010C00007F88B4005FA01F448EA030320FA07FE0B
:1010D0004FEA134CFD404EEA040EB5FBFCF94FEA13
:1010E0001E440CFB19551FFA83F844EA054509FB19
:1010F00008F4AC4202FA01F200FA01FA08D9ED183C
:1011000009F1FF3043D2AC4241D9A9F102091D4493
:101110002D1B1FFA8EFEB5FBFCF00CFB10554EEAA2
:10112000054400FB08F8A04507D9E41800F1FF3595
:1011300029D2A04527D902381C4440EA0940A4EB33
:101140000804A0FB02894C45C6464D4615D312D073
:1011500056B1BAEB0E0364EB050404FA07F7CB4073
:101160001F43CC40376074600021BDE8F08718460B
:10117000F8E69046E0E6C245EAD2B8EB020E69EB2B
:1011800003050138E4E72846D7E7404691E7814662
:10119000BEE7014678E702383C4445E7084608E7E1
:1011A000A8F102083D442BE7704700BF2DE9784BBA
:1011B00004464268994B9A4200F2A280A368B3F1B8
:1011C000805F08D03BB1B3F5805F04D040F62E318C
:1011D000934802F086FA2268924B9A4200F0968079
:1011E000E368B3F5805F0BD053B1B3F5405F07D030
:1011F000B3F5005F04D040F63531894802F071FA4A
:10120000236A3BB1B3F5006F04D040F63631844811
:1012100002F067FA236953B1B3F5806F07D0B3F5D5
:10122000C06F04D040F639317D4802F05AFA636944
:1012300033F00C0200D123B940F63A31784802F07D
:1012400050FAA3696BB1B3F5807F0AD0B3F5007F84
:1012500007D0B3F5407F04D040F63B31704802F030
:1012600040FAE3693BB1B3F5004F04D040F63C319E
:101270006B4802F036FAA36822691343626913438C
:10128000E269134321680868674A024013430B6010
:101290002268536823F44053E1680B435360A36909
:1012A000226860498A4201D0216A0B43916821F487
:1012B00030610B43936023685C4A934233D05C4AAD
:1012C000934244D05B4A93425AD0564A93426DD0DF
:1012D0001025544A934200F08A80E369B3F5004F29
:1012E00000F00881082D00F29381DFE815F052012B
:1012F0006901730191017E019101910191018801C0
:1013000040F62D31464802F0ECF957E7E368002B30
:1013100080D0B3F5005F3FF47DAF40F631314048F7
:1013200002F0DFF976E702F55842D2F8882002F0A1
:101330000302032A09D8DFE802F00204520601255D
:10134000C7E70425C5E70825C3E71025C1E702F56F
:10135000E632D2F8882002F00C020C2A0ED8DFE820
:1013600002F0070D0D0D090D0D0D400D0D0D0B00BB
:101370000025AEE70425ACE70825AAE71025A8E775
:1013800002F5E432D2F8882002F03002102A09D0A7
:1013900005D9202A27D0302A06D1082599E71AB97D
:1013A000002596E7042594E7102592E702F5C83258
:1013B000D2F8882002F44062B2F5806F0BD007D9D2
:1013C000B2F5006F11D0B2F5406F06D1082580E765
:1013D0001AB900257DE704257BE7102579E702256A
:1013E00077E7022575E7022573E7022571E7082DE7
:1013F00011D8DFE805F0081005100C1010102300BC
:101400000D4800261DE001F031F9002619E000F03A
:10141000D9FB002615E00020012612E080969800F6
:10142000CC37000800800040F369FFEF003801402E
:1014300000440040004800400024F4004FF4004005
:101440000026002800F0B680626802EB4203984252
:10145000C0F0E180B0EB023F00F2DF80082D46D8FB
:10146000DFE805F005451F45294545453B0001F0EE
:10147000FDF800234FEA10694FEA0028626850081F
:1014800018EB000B49F1000C58466146FFF706FDCA
:10149000A0F54072654B9A4200F2C1802368D86083
:1014A00088E05508002362480021401941F10001FD
:1014B000FFF7F4FCECE700F085FB00234FEA10692E
:1014C0004FEA00286268500818EB000B49F1000C45
:1014D00058466146FFF7E2FCDAE750080021002396
:1014E00010F5000041F10001FFF7D8FCD0E701261C
:1014F0000020CDE7082D49D8DFE805F0051E294872
:10150000344848483F0001F0B1F86268530803EBE3
:101510004003B3FBF2F39BB20026A3F110014FF698
:10152000EF7291427DD89AB222F00F02C3F34203C8
:1015300013432268D3603DE001F0AAF862685308C3
:1015400003EB4003B3FBF2F39BB20026E5E76268CE
:10155000530803F1F47303F59043B3FBF2F39BB22A
:101560000026DAE700F02EFB6268530803EB400325
:10157000B3FBF2F39BB20026CFE76268530803F592
:101580008033B3FBF2F39BB20026C6E701260023AB
:10159000C3E701F06BF8636800EB5300B0FBF3F0B6
:1015A00080B20026A0F110024FF6EF739A423AD8AB
:1015B0002368D8600023236663663046BDE8788BD5
:1015C00001F066F8636800EB5300B0FBF3F080B203
:1015D0000026E7E76368580800F5740000F510502E
:1015E000B0FBF3F080B20026DCE700F0EBFA6368B2
:1015F00000EB5300B0FBF3F080B20026D2E7636843
:10160000580800F50040B0FBF3F080B20026C9E7AF
:1016100001260020C6E70126CCE70126CAE70126FD
:10162000C8E70126C6E70126C4E700BFFFFC0F009C
:10163000000024F410B50446436AFF2B00F2BE807C
:10164000636A13F0010F10D0A36A3BB1B3F5003FFA
:1016500004D040F65A41684802F043F822685368C3
:1016600023F40033A16A0B435360636A13F0020F43
:1016700010D0E36A3BB1B3F5803F04D040F661413E
:101680005D4802F02EF82268536823F48033E16A43
:101690000B435360636A13F0040F10D0236B3BB10C
:1016A000B3F5802F04D040F66841534802F019F892
:1016B0002268536823F48023216B0B435360636AD1
:1016C00013F0080F10D0636B3BB1B3F5004F04D09B
:1016D00040F66F41484802F004F82268536823F44A
:1016E0000043616B0B435360636A13F0100F10D01B
:1016F000A36B3BB1B3F5805F04D040F676413E4822
:1017000001F0EFFF2268936823F48053A16B0B4331
:101710009360636A13F0200F10D0E36B3BB1B3F515
:10172000005F04D040F67D41334801F0DAFF2268C3
:10173000936823F40053E16B0B439360636A13F0E7
:10174000400F25D023682D4A93420CD0A2F5744255
:10175000934208D002F58062934204D040F684415F
:10176000254801F0BEFF236C3BB1B3F5801F04D0C8
:1017700040F68541204801F0B4FF2268536823F405
:101780008013216C0B435360236CB3F5801F1BD077
:10179000636A13F0800F10D0A36C3BB1B3F5002F38
:1017A00004D040F69241144801F09BFF2268536830
:1017B00023F40023A16C0B43536010BD40F6554148
:1017C0000D4801F08EFF3BE7636C6BB1B3F5001F72
:1017D0000AD0B3F5800F07D0B3F5C00F04D040F6A0
:1017E0008A41054801F07DFF2268536823F4C00355
:1017F000616C0B435360CBE7CC37000800380140E5
:101800002DE9F04105460F4616469846069C2B6882
:10181000DB6937EA03030CBF01230023B3421DD168
:10182000B4F1FF3FF3D000F06BF9A0EB0800844265
:1018300001D3002CEBD12A68136823F4D073136012
:101840002A68936823F00103936020236B67AB67DA
:10185000002385F870300320BDE8F0810020BDE84A
:10186000F0812DE9F04182B01E46436F202B04D059
:101870000223184602B0BDE8F08104460D469046AA
:10188000002955D0002A55D090F87030012B01D195
:101890000223EEE7012380F870300023C367212381
:1018A000436700F02DF90746A4F85080A4F8528051
:1018B000A368B3F5805F02D04FF0000814E02369FD
:1018C00013B14FF000080FE0A84600250CE0226895
:1018D00038F8023BC3F308031385B4F852309BB2C7
:1018E000013B9BB2A4F85230B4F852309BB273B1B2
:1018F00000963B46002280212046FFF781FFD8B9A1
:10190000002DE4D0236815F8012B1A85E5E7009631
:101910003B46002240212046FFF772FF034608B1F4
:101920000323A6E720226267002284F87020A0E744
:1019300001239EE701239CE703239AE730B583B098
:1019400004460023C36700F0DBF8054623681B68E4
:1019500013F0080F0CD123681B6813F0040F15D186
:1019600020236367A367002084F8700003B030BDB4
:101970006FF07E430093034600224FF4001120468F
:10198000FFF73EFF0028E6D00320EFE76FF07E432D
:1019900000932B4600224FF480012046FFF730FFD2
:1019A0000028DDD00320E1E700285DD010B5044613
:1019B0008369002B38D003682D4A934210D0A2F5DA
:1019C000744293420CD002F58062934208D002F533
:1019D0006052934204D040F23F11264801F081FE4C
:1019E000636F002B36D0242363672268136823F0CB
:1019F000010313602046FFF7D9FB012836D0636A44
:101A000073BB2268536823F4904353602268936841
:101A100023F02A0393602268136843F001031360E4
:101A20002046FFF78BFF10BD0368114A9342D7D0C1
:101A3000A2F574429342D3D002F580629342CFD094
:101A400002F560529342CBD04FF4A271094801F0E5
:101A500048FEC5E784F87030204601F07DFDC2E7FE
:101A60002046FFF7E7FDCCE70120704710BD00BF1F
:101A700000380140CC370008104B1B680BB901201F
:101A8000704710B504464FF47A70B0FBF3F30C4A7C
:101A90001068B0FBF3F001F06BFC68B90F2C01D9B2
:101AA000012010BD002221464FF0FF3001F01CFC48
:101AB000044B1C60002010BD012010BD64000020FC
:101AC0006C0000206800002010B5032001F0EEFB40
:101AD0000020FFF7D1FF10B10124204610BD0446BD
:101AE00001F070FCF9E70000034A13680349096834
:101AF0000B441360704700BF980000206400002072
:101B0000014B1868704700BF9800002038B50446A4
:101B1000FFF7F6FF0546B4F1FF3F02D0044B1B6808
:101B20001C44FFF7EDFF401B8442FAD838BD00BFCC
:101B30006400002030B583B00546204B9B6D13F048
:101B4000805F0BD001F054FBB0F5007F17D0802DE3
:101B50001FD82DD0702D2DD000211BE0174CA36D68
:101B600043F08053A365A36D03F080530193019B61
:101B700001F03EFBA36D23F08053A365E4E7802DC5
:101B800003D9A02D03D9022104E0002102E00121A4
:101B900000E003210A4A136823F007030B43136094
:101BA000136803F00703994206D0012003B030BD4B
:101BB0000221EFE70121EDE70020F7E700100240E6
:101BC00000200240284A9368D26802F0030213F012
:101BD0000C030AD00C2B06D0042B1FD0082B20D0CE
:101BE0000020024610E0012AF6D11F4A126812F0C6
:101BF000080F0CD11C4AD2F89420C2F303221B49CF
:101C000051F8222043B100200C2B0DD07047164A0A
:101C10001268C2F30312F2E71046F5E714480022F7
:101C2000F2E714480022EFE70F4BDB6803F00303F1
:101C3000022B15D0032B15D00B49C868C0F3021036
:101C4000431CC868C0F3062000FB02F0B0FBF3F0B1
:101C5000CB68C3F3416301335B00B0FBF3F0D5E71E
:101C6000034AE9E7034AE7E7001002403439000875
:101C70000024F40000127A00002800F0CB83F0B5B5
:101C800083B00446036813B113F03F0F4FD0AC4B41
:101C90009D6805F00C05DE6806F00306236813F066
:101CA000100F00F0B380A369012B04D940F2A711F3
:101CB000A44801F016FDE369FF2B3ED8236AD3B197
:101CC000102B18D0202B16D0302B14D0402B12D034
:101CD000502B10D0602B0ED0702B0CD0802B0AD044
:101CE000902B08D0A02B06D0B02B04D040F2A91125
:101CF000944801F0F6FC45B30C2D24D0A369002BC9
:101D000000F0D1808E4A136843F001031360FFF79F
:101D1000F7FE07468A4B1B6813F0020F40F0B080B5
:101D2000FFF7EEFEC01B0228F4D9032380E34FF433
:101D3000CF71844801F0D5FCA9E74FF4D4718148F4
:101D400001F0CFFCBAE7012ED8D17D4B1B6813F010
:101D5000020F03D0A369002B00F05F83206A784B49
:101D60001B6813F0080F1DD0754B1B6803F0F003C0
:101D700083421ED2FFF7DEFE002840F05083704BF6
:101D80001A6842F008021A601A6822F0F002216A0A
:101D90000A431A605A6822F47F42E16942EA01224A
:101DA0005A601EE0664BD3F894301B0903F0F00331
:101DB000DEE7634B1A6842F008021A601A6822F0E4
:101DC000F002216A0A431A605A6822F47F42E169EC
:101DD00042EA01225A60206AFFF7ACFE002840F078
:101DE0002083FFF7EFFE564B9B68C3F30313564A5D
:101DF000D35C03F01F03D840544B1860544B186851
:101E0000FFF73AFE0346002840F01283236813F0E0
:101E1000010F67D0636853B1B3F5803F07D0B3F5C6
:101E2000A02F04D040F21121464801F05AFC082DA1
:101E30004FD00C2D4BD06368B3F5803F00F08A8003
:101E4000B3F5A02F00F08C803D4B1A6822F480324D
:101E50001A601A6822F480221A606368002B00F06E
:101E60008C80FFF74DFE0746354B1B6813F4003F8F
:101E700038D1FFF745FEC01B6428F5D90323D7E20C
:101E80002F4B1A6842F008021A601A6822F0F0021A
:101E9000216A0A431A605A6822F47F42E16942EAE1
:101EA00001225A60B2E7264A136823F00103136047
:101EB000FFF726FE0746224B1B6813F0020FA5D042
:101EC000FFF71EFEC01B0228F5D90323B0E2032E44
:101ED000B1D11B4B1B6813F4003F03D06368002B88
:101EE00000F0A182236813F0020F6ED0E3683BB1CB
:101EF000B3F5807F04D04FF41171124801F0F1FB6B
:101F000023691F2B48D8042D4ED00C2D4AD0E368EE
:101F1000002B00F088800A4A136843F48073136032
:101F2000FFF7EEFD0646064B1B6813F4806F71D178
:101F3000FFF7E6FD801B0228F5D9032378E200BFF6
:101F400000100240043800081C3900086C00002012
:101F500068000020AF4A136843F4803313607CE7C5
:101F600003F18043A3F53C331A6842F480221A60DF
:101F70001A6842F480321A606FE7FFF7C1FD074626
:101F8000A44B1B6813F4003FACD0FFF7B9FDC01B96
:101F90006428F5D903234BE240F245219E4801F025
:101FA000A0FBB0E7022EB2D19A4B1B6813F4806FEE
:101FB00003D0E368002B00F03882964A536823F080
:101FC000F853216943EA01635360236813F0080F53
:101FD00054D06369012B04D940F285218E4801F069
:101FE00080FB63699BB38B4AD2F8943043F00103C2
:101FF000C2F89430FFF784FD0646864BD3F8943040
:1020000013F0020F3AD1FFF77BFD801B0228F4D9B1
:1020100003230DE27F4A536823F0F853216943EA12
:1020200001635360D1E77B4A136823F48073136024
:10203000FFF766FD0646774B1B6813F4806FC4D02C
:10204000FFF75EFD801B0228F5D90323F0E1714AFA
:10205000D2F8943023F00103C2F89430FFF750FD1A
:1020600006466C4BD3F8943013F0020F06D0FFF7FE
:1020700047FD801B0228F4D90323D9E1236813F01C
:10208000040F00F08580A368012B06D9052B04D02E
:102090004FF43671604801F024FB5E4B9B6D13F0EA
:1020A000805F36D15B4B9A6D42F080529A659B6D92
:1020B00003F080530193019B0126584B1B6813F4D6
:1020C000807F28D0A368012B39D0052B3FD0514BFE
:1020D000D3F8902022F00102C3F89020D3F890208A
:1020E00022F00402C3F89020A368002B3DD0FFF734
:1020F00007FD0746474BD3F8903013F0020F46D147
:10210000FFF7FEFCC01B41F288339842F2D903234B
:102110008EE10026D1E7414A136843F480731360CF
:10212000FFF7EEFC07463D4B1B6813F4807FC9D1D7
:10213000FFF7E6FCC01B0228F5D9032378E1354AF6
:10214000D2F8903043F00103C2F89030CCE7314B25
:10215000D3F8902042F00402C3F89020D3F89020E6
:1021600042F00102C3F89020BEE7FFF7C9FC074622
:10217000284BD3F8903013F0020F08D0FFF7C0FCC3
:10218000C01B41F288339842F2D9032350E126BBA9
:10219000236813F0200F43D0636A012B04D940F267
:1021A0003D311D4801F09DFA636AE3B1194AD2F846
:1021B000983043F00103C2F89830FFF7A1FC0646BF
:1021C000144BD3F8983013F0020F29D1FFF798FC85
:1021D000801B0228F4D903232AE10E4A936D23F0D1
:1021E00080539365D4E70B4AD2F8983023F001036B
:1021F000C2F89830FFF784FC0646064BD3F89830B7
:1022000013F0020F0CD0FFF77BFC801B0228F4D9DF
:1022100003230DE100100240043800080070004064
:10222000A36A022B2DD8A36A002B00F000810C2D8D
:1022300000F0BA80022B2AD0824B1A6822F08072FA
:102240001A601B6813F0006F04D17E4AD36823F034
:102250000303D3607B4AD36823F0887323F480336D
:10226000D360FFF74DFC0446764B1B6813F0007FEC
:1022700000F09880FFF744FC001B0228F4D90323E8
:10228000D6E040F26631704801F02BFACBE7E36A02
:10229000032B3BD8236B013B072B3DD8636B083BDB
:1022A0004E2B3FD8A36B023B1D2B41D8E36B022B77
:1022B0000AD0042B08D0062B06D0082B04D040F2FD
:1022C0007631614801F00DFA236C022B0AD0042B01
:1022D00008D0062B06D0082B04D040F277315A489C
:1022E00001F0FFF9574A136823F080731360FFF77A
:1022F00007FC0546534B1B6813F0007F1ED0FFF709
:10230000FFFB401B0228F5D9032391E04FF45C71D9
:102310004D4801F0E6F9BDE740F271314A4801F05D
:10232000E0F9BBE740F27231474801F0DAF9B9E76A
:102330004FF45D71444801F0D4F9B7E7414AD368DE
:1023400042491940E36A206B013843EA0013606B8D
:1023500043EA0023E06B4008013843EA4053206C15
:102360004008013843EA4063A06B43EAC0630B4373
:10237000D360136843F080731360D36843F08073B5
:10238000D360FFF7BDFB04462E4B1B6813F0007FA4
:1023900006D1FFF7B5FB001B0228F5D9032347E060
:1023A000002345E0002343E0012B44D0254BDB68AC
:1023B00003F00301E26A914201D0012338E003F007
:1023C0007002216B0139B2EB011F01D001232FE014
:1023D00003F4FE42616BB2EB012F01D0012327E031
:1023E00003F07842A16BB2EBC16F01D001231FE073
:1023F00003F4C001E26B5208013AB1EB425F1CD119
:1024000003F0C063226C5208013AB3EB426F16D05E
:1024100001230DE0012318467047012308E0012342
:1024200006E0012304E0012302E0012300E0002391
:10243000184603B0F0BD0123FAE70123F8E70023B3
:10244000F6E700BF00100240043800088C809D01B0
:10245000002800F0F58070B504460D460368013B86
:102460000E2B14D8042D18D8774B1B6803F00703E4
:102470009D4218D9744A136823F007032B43136055
:10248000136803F007039D420DD0012070BD40F298
:102490002E416E4801F025F9E4E740F22F416B48E8
:1024A00001F01FF9E0E7236813F0010F44D06368DF
:1024B000032B0DD86368032B10D0022B2ED0002BDA
:1024C00033D1634A126812F0020F0DD1012070BDA2
:1024D00040F246415D4801F004F9EBE75C4A1268BE
:1024E00012F0007F00F0AE8059498A6822F00302A2
:1024F00013438B60FFF704FB0646554B9B6803F0C4
:102500000C036268B3EB820F16D0FFF7F9FA801B59
:1025100041F288339842F0D9032070BD4C4A1268CA
:1025200012F4003FE0D1012070BD494A126812F454
:10253000806FD9D1012070BD236813F0020F1DD028
:10254000A368A3B1802B12D0902B10D0A02B0ED05B
:10255000B02B0CD0C02B0AD0D02B08D0E02B06D04B
:10256000F02B04D040F2A241384801F0BAF8384AC2
:10257000936823F0F003A1680B439360324B1B6810
:1025800003F007039D420CD22F4A136823F0070380
:102590002B431360136803F007039D4201D0012011
:1025A00070BD236813F0040F19D0E36883B1B3F54D
:1025B000806F0DD0B3F5A06F0AD0B3F5C06F07D010
:1025C000B3F5E06F04D040F2C141204801F089F832
:1025D0001F4A936823F4E063E1680B439360236828
:1025E00013F0080F1AD0236983B1B3F5806F0DD0B3
:1025F000B3F5A06F0AD0B3F5C06F07D0B3F5E06FA5
:1026000004D04FF49961114801F06BF8104A9368B7
:1026100023F46053216943EAC1039360FFF7D2FAC0
:102620000B4B9B68C3F303130A4AD35C03F01F03ED
:10263000D840094B1860094B1868FFF71DFA70BDA8
:1026400001207047012070BD0020024004380008BE
:10265000001002401C3900086C00002068000020B7
:10266000014B1868704700BF6C00002008B5FFF7E9
:10267000F7FF054B9B68C3F30223044AD35C03F0C6
:102680001F03D84008BD00BF001002402C390008CD
:1026900008B5FFF7E5FF054B9B68C3F3C223044A67
:1026A000D35C03F01F03D84008BD00BF00100240F8
:1026B0002C390008F8B504460E460368032B26D8CB
:1026C0006368013B072B28D8A368083B4E2B2AD808
:1026D000A3697F4A134204D023F0887323F4803324
:1026E00023B140F652317B4800F0FBFF7A4BDB68A8
:1026F00013F0030F2BD0784BDB6803F00303226841
:10270000934216D00125002D5AD02846F8BD40F638
:102710004F31704800F0E5FFD2E74FF435616D4866
:1027200000F0DFFFD0E740F651316A4800F0D9FFF2
:10273000CEE7002A42D0684BDB68C3F302130133B3
:102740006268934201D00125DDE70025DBE72368BD
:10275000022B18D0032B1DD0012B0DD00125002DED
:10276000D1D15D48C26822F073026168013943EA41
:1027700001131343C360C6E7574A126812F0020FF1
:1027800014D00025EBE7544A126812F4806F0FD082
:102790000025E4E7504A126812F4003F0AD14E4A7D
:1027A000126812F4802F07D00025D8E70125D6E75C
:1027B0000125D4E70025D2E70125D0E70125A2E7CE
:1027C000454A136823F080631360FFF799F90746C1
:1027D000414B1B6813F0006F05D0FFF791F9C01B48
:1027E0000228F5D90325002D8FD1002E32D1E368C0
:1027F000023B1D2B28D838490B6923F0784323F47A
:10280000FE43A068E268D20642EA002213430B614D
:10281000314A136843F080631360FFF771F906468D
:102820002D4B1B6813F0006F05D1FFF769F9801B72
:102830000228F5D90325002D7FF467AF264A1369D6
:10284000A1690B43136160E740F6A531214800F010
:1028500048FFD0E7012E1DD06369022B0AD0042B5C
:1028600008D0062B06D0082B04D040F6DB311948DF
:1028700000F037FF1848026922F0C06222F4FE42DD
:10288000A16863695B08013B5B0643EA01231343CC
:102890000361BDE72369022B0AD0042B08D0062B65
:1028A00006D0082B04D040F6C9310A4800F019FFC1
:1028B0000948026922F4C00222F4FE42A168236999
:1028C0005B08013B5B0543EA0123134303619FE778
:1028D000000011013C380008001002402DE9F041D1
:1028E00082B004460368614A1A4219D0236813F47F
:1028F000006F36D0636C4BB1B3F5000F06D0B3F563
:10290000400F03D0D3215A4800F0EBFE636CB3F5BF
:10291000000F19D0B3F5400F07D0E3B1012705E050
:10292000CB21534800F0DDFEE0E70027002F40F008
:102930008480504AD2F8883023F44003616C0B4302
:10294000C2F888303E460EE04A4AD36843F48033EA
:10295000D3600027EAE70021201DFFF7ABFE074602
:10296000E4E700263746236813F4003F00F08B802D
:10297000E36D6BB1B3F5807F0AD0B3F5007F07D06C
:10298000B3F5407F04D04FF4A371394800F0A9FE9D
:10299000384B9B6D13F0805F51D10123002B50D039
:1029A000344B9A6D42F080529A659B6D03F08053D0
:1029B0000193019B4FF001082F4A136843F4807381
:1029C0001360FFF79DF805462B4B1B6813F4807FBF
:1029D00005D1FFF795F8401B0228F5D90327002FF2
:1029E0004CD1244BD3F8903013F4407315D0E26DE2
:1029F000934212D01F4AD2F8903023F44073D2F899
:102A0000901041F48031C2F89010D2F8901021F467
:102A10008031C2F89010C2F8903013F0010F13D13A
:102A2000002F40F0CE81134AD2F8903023F4407347
:102A3000E16D0B43C2F8903021E03E4693E700235E
:102A4000ACE74FF00008B7E7FFF75AF80546094B27
:102A5000D3F8903013F0020FE2D1FFF751F8401B8A
:102A600041F288339842F2D90327D9E7E7EF0E0005
:102A70003C38000800100240007000403E46B8F1AB
:102A8000000F40F0A081236813F0010F14D0236AD7
:102A9000012B08D9032B06D0022B04D040F29B1146
:102AA000B34800F01EFEB34AD2F8883023F0030387
:102AB000216A0B43C2F88830236813F0020F15D047
:102AC000636A53B1042B08D00C2B06D0082B04D01A
:102AD00040F2A511A64800F004FEA64AD2F88830BC
:102AE00023F00C03616A0B43C2F88830236813F0AB
:102AF000040F15D0A36A53B1102B08D0302B06D089
:102B0000202B04D040F2B111994800F0EAFD994A17
:102B1000D2F8883023F03003A16A0B43C2F8883022
:102B2000236813F0200F18D0E36A6BB1B3F5806F00
:102B30000AD0B3F5406F07D0B3F5006F04D040F270
:102B4000D9118B4800F0CDFD8A4AD2F8883023F4A1
:102B50004063E16A0B43C2F88830236813F4007FB6
:102B600018D0E36B6BB1B3F5802F0AD0B3F5002F0B
:102B700007D0B3F5402F04D04FF4F1717C4800F03A
:102B8000B0FD7C4AD2F8883023F44023E16B0B433C
:102B9000C2F88830236813F4806F18D0236C6BB1AF
:102BA000B3F5801F0AD0B3F5001F07D0B3F5401F5F
:102BB00004D040F2E9116E4800F093FD6D4AD2F85E
:102BC000883023F44013216C0B43C2F8883023680B
:102BD00013F0400F15D0236B53B1B3F5805F07D0CE
:102BE000B3F5005F04D040F2F111614800F079FDC7
:102BF000604AD2F8883023F44053216B0B43C2F86B
:102C00008830236813F0800F15D0636B53B1B3F590
:102C1000804F07D0B3F5004F04D040F2FD11544867
:102C200000F05FFD534AD2F8883023F44043616BD3
:102C30000B43C2F88830236813F4807F15D0A36B50
:102C400053B1B3F5803F07D0B3F5003F04D040F255
:102C50000921474800F045FD464AD2F8883023F460
:102C60004033A16B0B43C2F88830236813F4005F34
:102C700021D0A36C6BB1B3F1806F0AD0B3F1006FB8
:102C800007D0B3F1406F04D040F22221384800F061
:102C900028FD384AD2F8883023F04063A16C0B43FA
:102CA000C2F88830A36CB3F1006F00F09280B3F1EA
:102CB000806F00F09380236813F4002F1FD0E36C23
:102CC0006BB1B3F1806F0AD0B3F1006F07D0B3F1ED
:102CD000406F04D040F24321254800F002FD254A10
:102CE000D2F8883023F04063E16C0B43C2F888309F
:102CF000E36CB3F1006F7AD0B3F1806F7CD02368BE
:102D000013F4802F1FD0236D6BB1B3F1806F0AD005
:102D1000B3F1006F07D0B3F1406F04D04FF41A71D4
:102D2000134800F0DEFC134AD2F8883023F04063E9
:102D3000216D0B43C2F88830236DB3F1006F64D06E
:102D4000B3F1806F66D0236813F4804F1ED0636D9B
:102D500053B1B3F1805F07D0B3F1405F04D04FF4BB
:102D60002271034800F0BDFC024AD2F8883003E02B
:102D70003C3800080010024023F04053616D0B43C3
:102D8000C2F88830636DB3F1805F4BD0236813F4D1
:102D9000004F12D0A36D3BB1B3F1804F04D04FF47C
:102DA0002D71244800F09DFC234AD2F8883023F08E
:102DB0008043A16D0B43C2F88830304602B0BDE8B5
:102DC000F0813E465BE61C4A936D23F08053936589
:102DD00059E6D36843F48013D3606CE70121201DCA
:102DE000FFF768FC00283FF466AF064663E7D36848
:102DF00043F48013D36082E70121201DFFF75AFCC2
:102E000000283FF47CAF064679E7D36843F480138B
:102E1000D36098E70121201DFFF74CFC002892D0D9
:102E2000064690E70221201DFFF744FC0028ADD0A4
:102E30000646ABE73C380008001002402DE9F04799
:102E400082B005460C46B0F1904F16D0A44B984284
:102E500013D003F5806398420FD003F58063984246
:102E60000BD003F58063984207D003F54063984286
:102E700003D0B3219B4800F034FC23689AB212B10E
:102E80001B0C1B041BB1B421964800F02AFC63689C
:102E9000012B24D9112B22D0022B20D0122B1ED093
:102EA000914A93421BD002F58012934217D002F54B
:102EB0008012934213D0A2F5F81293420FD002F57C
:102EC000801293420BD002F58012934207D0032B5D
:102ED00005D00B2B03D0B521824800F002FCA3687B
:102EE000022B01D80026B9E0B6217E4800F0F9FB9C
:102EF000F8E7B5F1904F16D0794B9D4213D003F50A
:102F000080639D420FD003F580639D420BD003F593
:102F100080639D4207D003F540639D4203D0C521E5
:102F2000704800F0DEFB23690F2B11D8F20808323D
:102F300055F8223006F0070189000F20884023EA67
:102F40000003206900FA01F10B4345F8223097E0B5
:102F5000C621644800F0C5FBE8E7E368032B00F2F4
:102F6000AD80AB6808EA0303E26802FA0AF2134391
:102F7000AB606B6823EA09096368C3F30013B340CD
:102F800049EA03036B60EB6808EA0308A36803FAE5
:102F90000AF348EA0303EB60636813F0805F5CD0D8
:102FA000524B1A6E42F001021A661B6E03F00103C7
:102FB0000193019BB208911C4D4B53F8213006F050
:102FC000030189000F20884023EA0003B5F1904FE8
:102FD0007BD0434885427AD000F58060854278D026
:102FE00000F58060854276D000F5806085426AD029
:102FF000072000FA01F10B4302323D4941F822302B
:103000003C4B1A68FB4302EA0301606810F4803FFE
:1030100001D047EA0201374A1160526803EA02010F
:10302000606810F4003F01D047EA0201314A516064
:10303000926803EA0201606810F4801F01D047EA39
:1030400002012C4A9160D2681340616811F4001F9C
:1030500001D047EA0203274AD3600136276837FACE
:1030600006F33AD04FF0010909FA06F917EA090701
:10307000F3D06368022B3FF43CAF122B3FF439AF1F
:103080002B684FEA460A4FF0030808FA0AF86FEA7D
:10309000080803EA0803626802F0030202FA0AF26F
:1030A00013432B6063685A1E012A7FF656AF112B1B
:1030B0003FF453AF122B7FF466AF4EE7DA21094895
:1030C00000F00FFB4DE7042093E7002091E701207B
:1030D0008FE702208DE703208BE702B0BDE8F08781
:1030E000000400487438000800001110001002406D
:1030F000000001400004014070B5054614460E462C
:1031000049B1012C04D940F2B311074800F0E9FAA3
:103110003CB9AE6270BD4FF4D971034800F0E1FADA
:10312000EFE7AE6170BD00BF7438000838B5036CBE
:10313000196804682568436C03F01C0304229A4054
:10314000114216D015F0040F13D0236813F0200F8E
:1031500003D1236823F004032360016C436C03F064
:103160001C02042393404B60036B002B3ED0984716
:1031700038BD02229A4011421BD015F0020F18D020
:10318000236813F0200F06D1236823F00A0323607D
:10319000012380F82530016C436C03F01C020223EC
:1031A00093404B60002380F82430C36AF3B1984702
:1031B00038BD082202FA03F3194217D015F0080FA0
:1031C00014D0236823F00E032360016C436C03F0DA
:1031D0001C03012202FA03F34B60C26380F825202E
:1031E000002380F82430436B03B1984738BD0000BA
:1031F000024B186800F4C060704700BF00700040C8
:1032000010B50446B0F5007F06D0B0F5806F03D04E
:10321000A821224800F065FAB4F5007F0FD0204BBA
:103220001B6803F4C063B3F5806F34D01C4A136885
:1032300023F4C06343F480631360002010BD184B77
:103240001B6803F4C063B3F5007F20D0144A1368F1
:1032500023F4C06343F400731360124B1A683223E3
:1032600003FB02F3104AA2FB03239B0C013300E093
:10327000013B0B4A526912F4806F01D0002BF7D149
:10328000074B5B6913F4806F03D0032010BD00204F
:1032900010BD002010BD002010BD00BFAC380008DC
:1032A000007000406C00002083DE1B4310B5044614
:1032B000C31E042B0FD80A4AD36823F4E0631B040F
:1032C0001B0C240204F4E064234343F0BF6343F483
:1032D0000033D36010BDA721024800F002FAEAE7EC
:1032E00000ED00E0E438000870B505460C461646CF
:1032F0000F2A24D80F2C27D81A4BDB68C3F30223DC
:10330000C3F10702042A28BF0422191D062920D967
:10331000033B012101FA02F2013A14409C4001FAF8
:1033200003F3013B33401C43002D14DB2401E4B2C2
:1033300005F1604505F5614585F8004370BDBF2185
:10334000094800F0CEF9D5E7C021074800F0C9F9D7
:10335000D2E70023DDE705F00F052401E4B2034BBB
:103360005C5570BD00ED00E0E438000814ED00E0AD
:103370000138B0F1807F0AD2064B5860F021064A2E
:1033800082F823100020986007221A6070470120FD
:10339000704700BF10E000E000ED00E07047FEE77E
:1033A000FEE7FEE7FEE770477047704708B5FEF797
:1033B0009BFB08BD08B50248FFF7B8FE08BD00BF7B
:1033C0000001002082B00A4B1A6E42F001021A6618
:1033D0001A6E02F001020092009A9A6D42F0805239
:1033E0009A659B6D03F080530193019B02B0704777
:1033F000001002400F49D1F8883043F47003C1F83F
:1034000088300D4B1A6842F001021A600020986063
:103410001A6822F0A85222F410221A604FF4805247
:10342000DA601A6822F480221A6098614FF0006313
:103430008B60704700ED00E00010024030B58BB0AB
:103440000024059406940794089409942F4BDA6C91
:1034500042F00402DA64DA6C02F004020192019A8A
:10346000DA6C42F08002DA64DA6C02F080020292D6
:10347000029ADA6C42F00102DA64DA6C02F00102BC
:103480000392039ADA6C42F00202DA64DB6C03F016
:1034900002030493049B22464FF498714FF090402E
:1034A000FFF72AFE4FF44043059303250695079442
:1034B00005A91748FFF7C2FC41F6030305930695DB
:1034C000079405A94FF09040FFF7B8FC4FF49873AC
:1034D0000593012306930794089405A94FF09040A3
:1034E000FFF7ACFC4FF4457305930695079405A9C7
:1034F0000848FFF7A3FC08230593074B069307949E
:1035000005A90648FFF79AFC0BB030BD0010024039
:10351000000800480004004800001110001C00488A
:1035200008B50B480B4B03604FF4E13343600023B5
:103530008360C36003610C2242618361C3610362E3
:103540004362FEF731FA00B908BD00F0C9F8FBE7A5
:10355000C80100200044004000B58BB00023059353
:1035600006930793089309930368264A934205D06C
:10357000254A934224D00BB05DF804FB234B1A6E0E
:1035800042F480421A661A6E02F480420192019A55
:10359000DA6C42F00102DA64DB6C03F0010302939F
:1035A000029B4FF4C0630593022306930323089301
:1035B0000723099305A94FF09040FFF73FFCDAE796
:1035C000124B9A6D42F400329A659A6D02F4003201
:1035D0000392039ADA6C42F00102DA64DB6C03F0C6
:1035E00001030493049B0C230593022306930323F6
:1035F00008930723099305A94FF09040FFF71EFC9D
:10360000B9E700BF0038014000440040001002400C
:103610002DE9F043AFB0442200211DA8FCF72EFE97
:103620000024189419941A941B941C946022214627
:103630006846FCF723FE01271D974FF480331E9345
:10364000022527950326289629974FF01009CDF8D3
:10365000A8904FF00708CDF8AC802C952D951DA8AB
:10366000FEF70AFB0F23189319961A941B941C94C7
:10367000314618A8FEF7ECFE44F643030093089485
:1036800009940C9411944FF080531593019602976E
:10369000CDF80C90CDF8108005950695054B079355
:1036A0006846FFF71BF94FF40070FFF7A9FD2FB034
:1036B000BDE8F0830000010108B5FEF705FAFFF749
:1036C000A7FFFFF7BBFEFFF72BFF0448FCF78CFEBC
:1036D0004FF4FA70FEF71AFAF7E700BF64390008F2
:1036E0007047704710B514464FF6FF7392B2024808
:1036F000FEF7B7F8204610BDC8010020DFF834D02F
:10370000002103E00C4B5B58435004310B480C4B39
:1037100042189A42F6D30B4A02E0002342F8043BD7
:10372000094B9A42F9D3FFF765FEFCF783FDFFF7DB
:10373000C3FFFEE7000001209039000800000020D0
:1037400070000020700000204C020020FEE7000006
:10375000F8B500BFF8BC08BC9E467047F8B500BF7E
:08376000F8BC08BC9E4670474E
:10376800040000200000000000000000000000002D
:103778000000000000000000000000000000000041
:103788000000000000000000000000000000000031
:103798000000000000000000000000000000000021
:1037A8000000000000000000000000000000000011
:1037B8000000000000000000000000000000000001
:1037C80000000000447269766572732F53544D33BC
:1037D800324C3478785F48414C5F44726976657240
:1037E8002F5372632F73746D33326C3478785F683B
:1037F800616C5F756172742E6300000044726976B3
:103808006572732F53544D33324C3478785F484186
:103818004C5F4472697665722F5372632F73746DAF
:1038280033326C3478785F68616C5F7263632E63DF
:1038380000000000447269766572732F53544D334B
:10384800324C3478785F48414C5F447269766572CF
:103858002F5372632F73746D33326C3478785F68CA
:10386800616C5F7263635F65782E6300447269768A
:103878006572732F53544D33324C3478785F484116
:103888004C5F4472697665722F5372632F73746D3F
:1038980033326C3478785F68616C5F6770696F2E5B
:1038A80063000000447269766572732F53544D3378
:1038B800324C3478785F48414C5F4472697665725F
:1038C8002F5372632F73746D33326C3478785F685A
:1038D800616C5F7077725F65782E630044726976F9
:1038E8006572732F53544D33324C3478785F4841A6
:1038F8004C5F4472697665722F5372632F73746DCF
:1039080033326C3478785F68616C5F636F727465AA
:10391800782E63000000000000000000010203048C
:10392800060708090000000001020304A086010040
:10393800400D0300801A060000350C0040420F00BD
:1039480080841E0000093D0000127A000024F40063
:1039580000366E010048E801006CDC0268656C6C9A
:103968006F20776F726C6421000000000000000077
:0839780054D5FF7F010000009F
:08398000FD0100080000000039
:08398800D50100080000000059
:103990000400002000000000AC3700088C3700084D
:1039A0006C3700080000000000000000000000006C
:1039B0000000000000000000000000000000000007
:1039C00000000000000000000000000000000000F7
:1039D00000000000000000000000000000000000E7
:1039E00000000000000000000000000000000000D7
:1039F00000000000010000001000000000093D0070
:04000005080036FDBC
:00000001FF
